:020000040800F2
:10000000A00400209D010008BF120008E1110008B3
:10001000BD120008010300081F1A000800000000BC
:100020000000000000000000000000007115000842
:100030000303000800000000C11200087315000847
:10004000B7010008B7010008B7010008B7010008B0
:10005000B7010008B7010008B7010008B7010008A0
:10006000B7010008B7010008B7010008B701000890
:10007000B7010008B7010008B7010008B701000880
:10008000B7010008B7010008B7010008B701000870
:10009000B7010008B7010008B7010008B701000860
:1000A000B7010008B7010008B7010008B701000850
:1000B000B7010008B7010008B7010008B701000840
:1000C000B7010008B7010008B7010008B701000830
:1000D000B7010008B7010008B7010008B701000820
:1000E000B7010008B7010008B7010008B701000810
:1000F000B7010008B7010008B7010008B701000800
:10010000B7010008B7010008B7010008B7010008EF
:10011000B7010008B7010008B7010008B7010008DF
:10012000B7010008B7010008B7010008B7010008CF
:10013000B7010008B7010008B7010008B7010008BF
:10014000B7010008B7010008B7010008B7010008AF
:10015000B7010008B7010008B7010008B70100089F
:10016000B7010008B7010008B7010008B70100088F
:10017000B7010008B7010008B7010008000000003F
:10018000B7010008B7010008DFF80CD000F0A6F8AE
:1001900000480047591A0008A0040020064880477C
:1001A00006480047FEE7FEE7FEE7FEE7FEE7FEE75C
:1001B000FEE7FEE7FEE7FEE7E51500088901000817
:1001C0002DE9F05F0546002092469B46884606468C
:1001D000814640241BE0284641464746224600F01F
:1001E0006CF853465A46C01A914110D3114618462E
:1001F000224600F053F82D1A67EB01084F462246BD
:100200000120002100F04AF817EB00094E41201EA2
:10021000A4F10104DFDC484631462A46434600F09B
:1002200000B830BCBDE8C09F0649074A0868504383
:1002300043F23902104408604008704701490860E1
:1002400070470000000000206D4EC641D2B201E0B0
:1002500000F8012B491EFBD270470022F6E710B5CB
:1002600013460A4604461946FFF7F0FF204610BD24
:1002700030B50B46014600202022012409E021FA76
:1002800002F59D4205D303FA02F5491B04FA02F573
:100290002844151EA2F10102F1DC30BD202A04DB46
:1002A000203A00FA02F1002070479140C2F1200389
:1002B00020FA03F3194390407047202A04DB203AC8
:1002C00021FA02F00021704721FA02F3D040C2F176
:1002D000200291400843194670470000064C074D24
:1002E00006E0E06840F0010394E807009847103406
:1002F000AC42F6D3FFF74CFF881C0008A81C00088E
:10030000FEE7704770470000B0B5044600F0DEF825
:1003100005469048611C406818BF044400F0D6F8B8
:10032000401BA042FAD3B0BD2DE9FC4F5D4A072720
:100330004FF0000B4FF0010A4FF003094FF0000897
:100340000026904200F1384208BF06274FEAB22348
:10035000062B38BF4FEAB22700970B6833FA06F432
:1003600008BF00F0A9B80AFA06F413EA040C00F07A
:1003700093804D68122D16D80AFA05F313F0061F64
:1003800011D0D0F808E0CF6809FA08F32EEA030389
:1003900007FA08F73B438360C5F300134768B3408F
:1003A000A7433B43436005F00303032B09D1C5F387
:1003B000C00707FA06FEC76A27EA040444EA0E07E4
:1003C000C762C4688A6809FA08F7BC4302FA08F2EF
:1003D0002243FC43C26045F01002122A13D16FF091
:1003E00003070BF01C020F2307EA5607934007444C
:1003F0003D6A25EA03030D6905FA02F21A433A62DF
:100400004D6805F0030303FA08F2036823401A431A
:100410000260EA0040D5264A0BF00C070F25BD40CC
:100420001346126842F001021A601A681E4B02F06D
:1004300001021C46019226F003021A44019B1D4B47
:100440009E46D358AB43009D05FA07F73B4342F85D
:100450000E3022684F6842EA0C03FD0358BF22EABF
:100460000C032360BD03626842EA0C0358BF22EA12
:100470000C036360FD02A26842EA0C0358BF22EA43
:100480000C030A4AA360BF021546126842EA0C0335
:1004900058BF22EA0C032B600BF1040B08F1020891
:1004A00001365AE700180048000401400C040140DE
:1004B0006010024008FCFFFF1CBCBDE8E08F182361
:1004C000002A08BF2823C150704700000548006873
:1004D000704700BF1F48034940680A68104408601D
:1004E000704700BF9800002080B50948016841F4BA
:1004F00080710160032000F065F8002000F00AF828
:1005000008B1012080BD00F027F8002080BD00BFA9
:100510000020024070B50F4E04467068B0B14FF431
:100520007A71B1FBF0F046490968B1FBF0F000F0D8
:10053000E3FD01250F2C0AD848B94FF0FF302146C2
:100540000022002500F020F8346000E00125284654
:1005500070BD00BF0800002082B00A48816841F0E9
:1005600001018160816801F0010101910199016837
:1005700041F080510160006800F0805000900098C8
:1005800002B070475810024080B5144B1B68C3F38B
:10059000022CBCF1030E8CF007034FF0FF3C38BF78
:1005A0004FF0000E042B28BF04230CFA03F39943E9
:1005B0000CFA0EF301FA0EF19A431143BDE88040A4
:1005C00001F02EBA05494FF6FF030A681A4060F39E
:1005D0000A22034810430860704700BF0CED00E09A
:1005E0000000FA05EF49B0F5007F0A6802F4C06226
:1005F0001BD1B2F5007F20D00868012262F34A20A7
:10060000322208600E48006850430E4AB0FBF2F0F8
:10061000C0434A6918B1013012F48062F9D14869C7
:10062000400544BF0320704707E0B2F5806F04D057
:100630000868022262F34A2008600020704700BF69
:100640001000002040420F00D648006800F4C0604F
:10065000704700BF2DE9FC4704464078D04F0007A3
:1006600021D5606E4FEAB051032908D8DFE801F0C8
:1006700002091216201D002100F024FE06E00126CA
:1006800012E004F12000002100F0ACFE064658B94B
:10069000606E03E0396841F480313960F96F21F40C
:1006A00040010843F86700266078C00601D4B246CE
:1006B0002BE0A06E4FEA3060032809D8B246DFE88D
:1006C00000F0020C1318201D002100F0FBFD09E0D2
:1006D0004FF0010A4FF0010818E004F1200000215A
:1006E00000F080FE824604E03868B24640F4803074
:1006F0003860BAF1000FD04608D1F86FA16E4FF004
:10070000000A20F040700843F867B046A0788007E0
:1007100001D4C24665E0F86CC0000BD4F86C4FF011
:10072000010940F08050F864F86C00F080500190AE
:10073000019801E04FF000099A4D286840F480705C
:100740002860FFF7C3FE06462868C00507D4FFF7F8
:10075000BDFE801B0228F7D94FF0030A3AE0BAF138
:10076000000F37D1D7F8840010F4407028D0D4F8A7
:100770008410884211D0D7F88400D7F8841041F44F
:10078000803120F44070C7F88410D7F8841021F429
:100790008031C7F88410C7F88400C00710D0FFF775
:1007A00095FE064641F288354FF0030AD7F88400DB
:1007B000800705D4FFF78AFE801BA842F6D909E01E
:1007C000D7F88400D4F88410C24620F4407008435F
:1007D000C7F88400B9F1000F1EBFF86C20F08050FC
:1007E000F8642068C10705D0F96FA26B21F00301FE
:1007F0001143F967810705D5F96FE26B21F00C0110
:100800001143F967410705D5F96F226C21F03001DA
:100810001143F967010705D5F96F626C21F0C0013A
:100820001143F967C10605D5F96FA26C21F4407137
:100830001143F967810605D5F96FE26C21F4406137
:100840001143F967810505D5F96FE26D21F4402167
:100850001143F967410505D5F96F226E21F4401166
:100860001143F967410605D5F96F226D21F4405116
:100870001143F967010605D5F96F626D21F4404116
:100880001143F967C10505D5F96FA26D21F4403117
:100890001143F967810419D5FA6FE16E22F04062C5
:1008A000B1F1806F42EA0102FA6707D0B1F1006F3F
:1008B0000CD1396841F48011396007E0201D012115
:1008C00000F000FD002818BF82462068010319D5FA
:1008D000FA6F216F22F04062B1F1806F42EA0102AB
:1008E000FA6707D0B1F1006F0CD1396841F480117B
:1008F000396007E0201D012100F0E4FC002818BF4A
:1009000082462068410319D5FA6F616F22F0406278
:10091000B1F1806F42EA0102FA6707D0B1F1006FCE
:100920000CD1396841F48011396007E0201D0121A4
:1009300000F0C8FC002818BF82462068400419D582
:10094000F96FA06F21F04051B0F1005F41EA000162
:10095000F96707D0B0F1805F0CD1201D022100F0B3
:10096000B1FC04E004F12000022100F03BFD00286E
:1009700018BF82462068010405D5F96FE26F21F0A7
:1009800080411143F967C00306D5F86FD4F8801091
:1009900020F000400843F867504602B0BDE8F087F9
:1009A0000C100240007000402DE9F843002800F0D0
:1009B0008780454B04468846186800F00700884247
:1009C0000AD2186820F0070040EA0800186018688A
:1009D00000F00700404573D120684B4EC10734D06A
:1009E0006068022806D0032809D156F8081C89013E
:1009F0000DD465E056F8081C890308D460E056F869
:100A0000081C10B1490502D45AE0890758D531684D
:100A10009946354621F0030108433060FFF756FD43
:100A2000064641F2883728462868616800F00C00C5
:100A3000B0EB810F06D0FFF749FD801BB842F2D919
:100A400003203EE020682E464B46810705D53168DD
:100A5000A26821F0F00111433160196801F007012B
:100A600041450AD9196821F0070141EA08011960D6
:100A7000196801F00701414522D1410705D53168C8
:100A8000E26821F4E06111433160000706D5306867
:100A9000216920F4605040EAC100306000F038F86D
:100AA00031680A4AC1F30311515C01F01F01C840CB
:100AB0001449086006480068BDE8F843FFF72ABDFE
:100AC000012001B0BDE8F083002002403E1C000878
:100AD000080000200B480C490C4A00680968C1F363
:100AE0000221515C01F01F01C840704705480649CA
:100AF000064A00680968C1F3C221515C01F01F0178
:100B0000C840704710000020081002404E1C00082A
:100B1000FC498A68C86812F00C0205D00C2A20D162
:100B200000F0030001281CD108681F4B000747BFD5
:100B300008680009D1F89400000A002A00F00F00AC
:100B400053F8200008BF70470C2A1CBF00207047D4
:100B5000CA6802F00302022A0BD0032A08BF114818
:100B600008E0042A04BF0E487047082A16D10D4831
:100B700070470B48D1F80CC0CB68C9680222C1F39A
:100B8000416102EB4101C3F306225043CCF3021250
:100B90000132B0FBF2F0B0FBF1F070470020D3E778
:100BA0000024F40000127A00581C00082DE9F843D4
:100BB000002800F02C82D34E0446B06800F00C09E7
:100BC000F06800F003082078C00628D42078C00719
:100BD00075D0B9F1080F6BD0B9F10C0F08BFB8F19F
:100BE000030F65D06768B7F5803F07D03068B7F569
:100BF000A02F40F0108240F480203060306840F434
:100C000080303060FFF762FC05463068800356D4C0
:100C1000FFF75CFC411B03206429F6D9F8E1B9F128
:100C2000000F1BD0B9F10C0F08BFB8F1010F15D0A0
:100C3000A1693068002900F00F8140F001003060A8
:100C4000FFF744FC05463068800700F11681FFF786
:100C50003DFC411B03200229F5D9D9E1306880070A
:100C600003D5A069002800F0D281206A3168090705
:100C70005ABFD6F894100909316801F0F001884292
:100C800064D900F031FC002840F0C181306840F0A8
:100C9000080030603068216A20F0F00008433060BE
:100CA0007068E16920F47F4040EA0120706062E0F2
:100CB0003068800303D56068002800F0A8812078A0
:100CC00080072BD5B9F1040F1AD0B9F10C0F08BF6A
:100CD000B8F1020F14D0E1683068002900F0E58017
:100CE00040F480703060FFF7F1FB05463068400546
:100CF0000DD4FFF7EBFB411B03200229F6D987E156
:100D00003068400503D5E068002800F080817068F5
:100D1000216920F0F85040EA0160706020780007F7
:100D20004FD56169D6F89400C9B340F00100C6F808
:100D30009400FFF7CBFB0546D6F89400800740D41B
:100D4000FFF7C4FB401B0228F6D983E03168B9F1F4
:100D5000000F41F008013160316821F0F00141EAF3
:100D6000000131607168E26921F47F4141EA0221AA
:100D7000716000F09480FFF7CBFEB168D74AC1F3F1
:100D80000311515C01F01F01C840D5490860D548E6
:100D90000068FFF7BFFB002840F03A8116E720F01B
:100DA0000100C6F89400FFF791FB0546D6F89400C1
:100DB000800706D5FFF78AFB411B03200229F5D9DE
:100DC00026E12078400740F1A680B06DC0000BD42A
:100DD000B06D4FF0010840F08050B065B06D00F08C
:100DE00080500090009801E04FF00008BE4F386836
:100DF000C00510D4386840F480703860FFF766FB97
:100E000005463868C00506D4FFF760FB411B032088
:100E10000229F6D9FCE0A768012F07D0D6F8900088
:100E2000052F53D140F00400C6F89000D6F890008A
:100E300040F00100C6F89000FFF748FB054641F27C
:100E40008837D6F8900080075ED4FFF73FFB401B41
:100E5000B842F6D90320DBE020F001003060FFF754
:100E600035FB0546306880077FF5B0AEFFF72EFBF7
:100E7000411B03200229F5D9CAE0306840F0080080
:100E800030603068216A20F0F000084330607068FC
:100E9000E16920F47F4040EA0120706096E600F0AE
:100EA00023FB002840F0B38065E720F480703060B9
:100EB000FFF70CFB0546306840057FF52FAFFFF7C5
:100EC00005FB411B03200229F5D9A1E020F0010018
:100ED000C6F89000D6F8900020F00400C6F8900004
:100EE000FFF7F4FA0546002FA9D141F28837D6F86A
:100EF0009000800708D5FFF7E9FA411B0320B942AB
:100F0000F5D985E000100240B8F1000F1EBFB06DAA
:100F100020F08050B065A06A002800F0DC80022834
:100F20004BD1F068E16A00F003028A4265D1216B7F
:100F30006FF00F0202EB011100F070028A425CD1E7
:100F4000616B00F4FE42B2EB012F56D1A16B00F4AD
:100F50000032073918BF01218A424ED1E16B634A42
:100F600002EA015100F4C002A1F500118A4244D105
:100F7000216C4FF07E4200F0C06002EA016101F195
:100F80007E41884239D13068800100F1A480306808
:100F900040F080703060F06840F08070F060FFF7E3
:100FA00095FA04463068800100F19580FFF78EFACB
:100FB000011B03200229F5D92AE0B9F10C0F26D034
:100FC000306820F080703060306810F0205F03D10E
:100FD000F06820F00300F060F06846490840F060D7
:100FE000FFF774FA04463068800174D5FFF76EFA93
:100FF000011B03200329F6D30AE0B9F10C0F06D038
:10100000306840015CBF30685FEAC0001BD501203A
:1010100001B0BDE8F08320F480303060306820F407
:1010200080203060FFF752FA0546002F7FF4EDADC7
:10103000306880037FF543AEFFF748FA411B032079
:101040006429F5D9E4E7306820F080703060FFF75C
:101050003DFA05463068800106D5FFF737FA411B97
:1010600003200229F6D9D3E704F12C07F0686FF0CA
:101070000F058ECF05EB02121D4D28400843E16B92
:101080001043D64A40EA032002EA01514FF07E4263
:10109000A1F500110843216C02EA016101F17E41D2
:1010A0000843CF4901EA47310843F060306840F017
:1010B00080703060F06840F08070F060FFF706FAF2
:1010C00004463068800106D4FFF700FA011B0320B4
:1010D0000229F6D99CE700209AE700BF3E1C0008D1
:1010E0001000002008000020007000400000E0FF19
:1010F0008C809DF9FFFFEEFE411E0020B0EB116FCA
:101100001CBF01207047044AF023516003490B7053
:10111000072190601160704710E000E023ED00E0CF
:1011200010B5A0B10446406F28B9002084F87000C3
:10113000204600F025F8242060672068016821F02F
:1011400001010160204600F00BFB012801D10120C4
:1011500010BD606A10B1204600F06AFA206841684C
:1011600021F490414160816821F02A018160016889
:1011700041F0010101602046BDE8104000F0C1BA15
:1011800010B586B0044601A81421FFF766F8206860
:101190004949884221D13748C16841F40031C160D2
:1011A000C16801F4003100910099016841F001012A
:1011B000016001A9006800F001000090009807207C
:1011C00005900320049000200390022002900C2040
:1011D00001904FF09040FFF7A7F806B010BD00BF98
:1011E000FEE7000070B586B00025224800222026C8
:1011F000CDE90455016841F004010160016801F086
:10120000040100910099016841F0800101600168CA
:1012100001F0800100910099016841F00101016035
:10122000016801F0010100910099016841F002019B
:1012300001602021006800F00200009000984FF04B
:101240009040FFF73CF90C48039501AC2146029011
:101250004FF4005001900948FFF766F80120CDE9EE
:1012600003552146CDE901604FF09040FFF75CF84F
:1012700006B070BD4C10024000002110000800486C
:1012800010B50C480C4C00220C214FF4E133C0E99E
:101290000822C0E90043C0E90222C0E90421C0E9F4
:1012A0000622FFF73DFF002814BFBDE8104010BD27
:1012B000FFF728B81800002000440040FEE7704700
:1012C00070470000F8B5D84F04460D46F86880070F
:1012D00010D0F868216800F0030201208A427BD117
:1012E000002979D0F8686168C0F3021001308842A3
:1012F0000AD11DE02068032808D002283AD001282E
:1013000002D13968890708D4012065E0396889036A
:101310005CBF39685FEA4131F6D5F96862686FF001
:101320000F0321F0730103EB021208431043F8602E
:10133000386820F080603860FFF7C8F806463868E3
:10134000000105D5FFF7C2F8801B0228F7D93CE061
:10135000A5B138696149012D1BD101F1B461226940
:101360000840A16840EA01201C4901EA0251A1F5A8
:10137000001119E039684905C6D5CEE738695849E2
:101380000840D4E9021240EA0120564901EA4231FC
:101390000AE00840A168626940EA01204FF07E41FE
:1013A00001EA026101F17E4108433861386840F08A
:1013B00080603860FFF78AF805463868000106D477
:1013C000FFF784F8401B0228F7D9032004E0A06946
:1013D000396908433861002001B0F0BD0000E0FF2A
:1013E0000000FEFFF8B5904F04460D46F8688007F0
:1013F00010D0F868216800F0030201208A426BD106
:10140000002969D0F8686168C0F302100130884291
:101410000AD11DE02068032808D0022837D001280F
:1014200002D13968890708D4012055E03968890359
:101430005CBF39685FEA4131F6D5F96862686FF0E0
:101440000F0321F0730103EB021208431043F8600D
:10145000386820F080503860FFF738F80646386862
:10146000800005D5FFF732F8801B0228F7D92CE061
:10147000786985B1194922690840A16840EA0120CC
:101480004FF07E4101EA026101F17E410CE03968D2
:101490004905C9D5D1E712490840D4E9021240EA0A
:1014A0000120104901EA423108437861386840F070
:1014B00080503860FFF70AF805463868800006D487
:1014C000FFF704F8401B0228F7D9032004E0606905
:1014D000796908437861002001B0F0BDFF80FFF911
:1014E000FF80FDFF0000FEFFBCB51F4D04462868CD
:1014F000C0000FD4286840F080502860286800F0B1
:10150000805001900198FFF79FF8296821F08051E1
:10151000296001E0FFF798F8B0F5007F06D1812C33
:1015200008D30120A02C88BF02200EE0802C03D914
:1015300003200AE0002008E0A4F17000802CB0FA3B
:1015400080F04FEA501008BF022008490A6822F0D4
:10155000070202440A60096801F00701081A18BF6F
:10156000012002B0B0BD00BF581002400020024070
:101570007047FEF7AFBF70B5B8B027AD2421281D66
:10158000FEF76BFE6C468421201DFEF766FE0226E8
:101590000720CDE9366635900A203490012033903B
:1015A0001020CDE931662B904FF480702A902846A8
:1015B0002796FFF7FBFA0025032004212695CDE9A5
:1015C000245523900F20229022A8FFF7EDF9204602
:1015D0000F950096FFF73EF84FF40070FFF702F802
:1015E00038B070BD10B50F48104CD0F8801041F4E1
:1015F0007001C0F880100C490A6842F001020A60CC
:1016000000228A600B6823400B604FF48053CB604C
:101610000B6823F480230B608A614FF00061016046
:1016200010BD00BF08ED00E000100240FFFFF6EA29
:10163000416ACA0708D002685368D0F828C023F46A
:10164000003343EA0C0353608A0708D502685368E5
:10165000D0F82CC023F4803343EA0C0353604A07CC
:1016600008D502685368D0F830C023F4802343EAD9
:101670000C0353600A0708D502685368D0F834C0D9
:1016800023F4004343EA0C035360CA0608D50268FA
:101690009368D0F838C023F4805343EA0C03936076
:1016A0008A0608D502689368D0F83CC023F400533A
:1016B00043EA0C03936080B54A0615D5D0F800E0E4
:1016C000DEF804C0036C2CF48012B3F5801F42EAEC
:1016D0000302CEF8042007D1DEF80420436C22F484
:1016E000C0021A43CEF804200906BDE8804058BF66
:1016F000704701684A68806C22F4002210434860F9
:101700007047BCB504460020E067FEF7DFFE0546E3
:101710002068016809070BD56FF07E404FF4001177
:1017200000222B460090204600F02CF970B920686A
:10173000006840070CD56FF07E404FF48001002216
:101740002B460090204600F01DF908B1032005E06B
:1017500020210020616784F87000A16702B0B0BD4D
:10176000B0B5044601688068724DD4E90423104383
:1017700040EA0302E0690B6802432B401A430A6007
:101780004A68E36822F440521A434A606A4AA369ED
:1017900091421CBF256A2B438D6825F430652B438D
:1017A0008B60664B994215D0654B994214D0654BBE
:1017B000994213D0644B994212D0914212D0634B9C
:1017C00099424BD1624967A2096801F0030152F8BE
:1017D000215013E0022306E0042304E0062302E084
:1017E000082300E00A235A4D2D6825FA03F359A572
:1017F00003F0030355F82350914220D0B0F5004F79
:101800000ED10120082D00F290805B49DFE805F041
:1018100005454E8D488D8D8D4C00FFF75BF941E0FD
:101820000120082D00F281805249DFE805F0054CC7
:10183000557E4F7E7E7E5300FFF74CF948E0012035
:10184000082D00F272804B49DFE805F0056F116F3B
:101850000A6F6F6F0F00FFF73DF903E01025CBE72C
:10186000FFF756F9014610B940E04FF400416268B5
:10187000012002EB4203994257D31303994254D8F3
:101880000120082D51D8DFE805F0055033503650BF
:1018900050504400FFF71EF92FE0FFF727F901E051
:1018A000FFF736F9410001E04FF48031606801EB49
:1018B0005001B1FBF0F04FF6F071014034D0C0F3AD
:1018C0004200084310E0FFF711F901E0FFF720F9AB
:1018D000014601E04FF40041606801EB5001B1FBAB
:1018E000F0F080B210281FD32168C86000201CE0EF
:1018F0002248002104E0FFF70BF96268010E0002A4
:1019000010EB52004FF0000341F10001FEF758FCCC
:1019100005E04FF4000000EB5200B0FBF2F0184A73
:10192000A0F540719142DFD901200021C4E91811CE
:10193000B0BD00BFF369FFEF0080004000440040ED
:1019400000480040004C004000500040003801407A
:1019500088100240000000000400000002000000A7
:101960000800000001000000040000000200000068
:10197000080000000024F4000048E801000024F4FE
:10198000FFFC0F002DE9F843DDF820900F460168B9
:1019900098461646044609F10105C8693840C01B3F
:1019A000B0FA80F04009B04223D1002DF5D0FEF707
:1019B0008DFD2168B9F1000F0A681ED0A0EB080068
:1019C00048451AD8500744BFC8695FEA0050E4D5BB
:1019D0004FF400600862086820F4D07008608868DE
:1019E00020F00100886020206067A06704F17C007F
:1019F0000EE0002001B0BDE8F08322F4D070086052
:101A0000886820F0010088602020606704F1780079
:101A100020210160002084F870000320EAE7FEE73F
:101A200010B5074C00F00F03044AB0F1FF3F234408
:101A3000C8BF83180801187010BD00BF00E400E0A3
:101A400014ED00E003490A685206FCD5C2B28A814F
:101A5000704700BF1C440040FEF746FDFFF78BFDBA
:101A6000FFF7C0FBFFF70CFCC820FEF7E7FB632580
:101A700007A4FEF7D9FB90FBF5F101FB1500411C13
:101A8000204600F00FF84FF4FA70FEF73DFCF0E747
:101A900052616E646F6D4E756D6265723A25640AAF
:101AA000000000000FB4054B10B503A9044A0298CA
:101AB00000F018F810BC5DF814FB0000451A00088F
:101AC0000400002002E008C8121F08C1002AFAD151
:101AD00070477047002001E001C1121F002AFBD1AE
:101AE000704700002DE9FF4F89B09B460446002552
:101AF00006E025280BD05A460B999047641C6D1CB4
:101B000020780028F5D10DB0284600F095B80027C0
:101B1000B8460122474900E0074314F8013F203B43
:101B200002FA03F00842F7D120782E2819D114F8D0
:101B3000010F47F004072A280ED06FF02F022078FB
:101B4000A0F1300109290CD808EB880102EB410112
:101B500000EB0108641CF2E70A98641C50F8048B3F
:101B60000A9020780028CED0642808D0692806D0B2
:101B700075281ED05A460B9990476D1C58E00A995B
:101B80004FF00A0901C90A91002802DA40422D21CA
:101B900002E0390504D52B218DF82010012103E046
:101BA000F90704D02021F7E78A4608AE0DE00021AE
:101BB000FAE70A994FF00A0901C90A91F7E749467D
:101BC000FEF756FB303106F8011D0028F7D1ADEBCA
:101BD000060000F12009780701D44FF00108C8453C
:101BE00002DDA8EB090000E000208046002706E0A7
:101BF00008A85A46C05D0B9990476D1C7F1C57453D
:101C0000F6DB04E030205A460B9990476D1CB8F182
:101C10000001A8F10108F5DC05E016F8010B5A46B1
:101C20000B9990476D1CB9F10001A9F10109F4DC91
:101C3000641C65E70928010030BCBDE8C08F0000C6
:101C4000000000000000010203040607080900006C
:101C50000000010203040000A0860100400D030003
:101C6000801A060000350C0040420F0080841E00E0
:101C700000093D0000127A000024F40000366E01D5
:101C80000048E801006CDC02A81C000800000020ED
:101C900018000000C41A0008C01C0008180000202A
:101CA00088040000D41A00080000000000000000B2
:101CB000100000000100000000093D0000000000CD
:040000050800018965
:00000001FF
