:020000040800F2
:10000000D80400209D0100089B1C0008391B000833
:10001000991C00086D080008EF240008000000008B
:10002000000000000000000000000000491F000860
:10003000B10A0008000000009D1C00084B1F0008CA
:10004000B7010008B7010008B7010008B7010008B0
:10005000B7010008B7010008B7010008B7010008A0
:10006000B7010008B7010008B7010008B701000890
:10007000B7010008B7010008B7010008B701000880
:10008000B7010008B7010008B7010008B701000870
:10009000B7010008B7010008B7010008B701000860
:1000A000B7010008B7010008B7010008B701000850
:1000B000B7010008B7010008B7010008B701000840
:1000C000B7010008B7010008B7010008B701000830
:1000D000B7010008B7010008B7010008B701000820
:1000E000B7010008B7010008B7010008B701000810
:1000F000B7010008B7010008B7010008B701000800
:10010000B7010008B7010008B7010008B7010008EF
:10011000B7010008B7010008B7010008B7010008DF
:10012000B7010008B7010008B7010008B7010008CF
:10013000B7010008B7010008B7010008B7010008BF
:10014000B7010008B7010008B7010008B7010008AF
:10015000B7010008B7010008B7010008B70100089F
:10016000B7010008B7010008B7010008B70100088F
:10017000B7010008B7010008B7010008000000003F
:10018000B7010008B7010008DFF80CD000F04AFB07
:100190000048004729250008D80400200648804769
:1001A00006480047FEE7FEE7FEE7FEE7FEE7FEE75C
:1001B000FEE7FEE7FEE7FEE7BD1F00088901000835
:1001C0002DE9F05F0546002092469B46884606468C
:1001D000814640241BE0284641464746224600F01F
:1001E0009DF953465A46C01A914110D311461846FC
:1001F000224600F084F92D1A67EB01084F4622468B
:100200000120002100F07BF917EB00094E41201E70
:10021000A4F10104DFDC484631462A46434600F09B
:1002200000B830BCBDE8C09FD2B201E000F8012B9D
:10023000491EFBD270470022F6E710B513460A4666
:1002400004461946FFF7F0FF204610BD2DE9FE4F8A
:1002500081EA030404F0004421F0004100944FF0CF
:10026000000B23F0004350EA01045ED052EA03047D
:100270005BD0C3F30A54C1F30A552C44A4F2F334FF
:100280000194A0FB0254C1F3130141F48011C3F3A4
:10029000130343F4801301FB024400FB034E840A62
:1002A000970A44EA815447EA8357A4FB07680295FA
:1002B0008D0A05FB07854FEA932C04FB0C54270598
:1002C000029D4FEA065847EA1637B5EB08056EEB74
:1002D000070C870E920E47EA811742EA8312A7FBAA
:1002E0000201B6EB0B0164EB00042B0D43EA0C3367
:1002F0005E1844EB1C50DA465146E7FB0201C5F399
:1003000013044FEA0B3343EA14534FEA0432019CBF
:1003100043EA0603A4F10C040294009CCDE900B466
:1003200000F052F903B000F003B800200146F9E7ED
:1003300030BCBDE8C08F2DE9F04D81EA030404F024
:10034000004B21F0004514464FF0000A23F0004115
:1003500050EA050220D054EA01021DD0C5F30A5725
:100360000246C5F31303C1F31300C1F30A5640F468
:10037000801543F48013A7EB0608101BD64608F23D
:10038000FD3873EB050002D308F1010801E0921873
:100390005B41B8F1000F03DA00200146BDE8F08DA3
:1003A00000204FF48011064684460EE0171B73EBC5
:1003B000050705D3121B63EB050306434CEA010C4A
:1003C00049084FEA300092185B4150EA0107EDD12D
:1003D00052EA030012D082EA040083EA05010843CE
:1003E00005D0101BAB4106D20122002306E00022FB
:1003F0004FF0004302E06FF0010253101AEB0600C9
:100400004CEB085110EB0A0041EB0B01BDE8F04D3D
:1004100000F0CBB80EB5C10F80EAE0700844CA07FF
:10042000002140F233438DE80E000A460B4600F0EF
:10043000CBF803B000BD70B5C1F30A5201F000451E
:100440000024C1F3130140F2FF3341F480119A42BA
:1004500001DA002070BD40F233439A42A2F23342E7
:1004600003DC524200F05AF800E090402C43F1D0F7
:10047000404270BD00F0004230F000400AD0C10D93
:1004800001F56071C0F3160042EA0151C20840074D
:100490001143704700200146704701F0004330B41B
:1004A00021F0004150EA010206D00A0DA2F5607267
:1004B000C1F31301002A02DC30BC00207047440F56
:1004C00044EAC104C100E01830BC00EBC25000F0A7
:1004D00035B830B50B46014600202022012409E042
:1004E00021FA02F59D4205D303FA02F5491B04FAED
:1004F00002F52844151EA2F10102F1DC30BD202ACC
:1005000004DB203A00FA02F1002070479140C2F16A
:10051000200320FA03F3194390407047202A04DB9C
:10052000203A21FA02F00021704721FA02F3D0406C
:10053000C2F1200291400843194670470029A8BF24
:100540007047401C490008BF20F00100704710B4FC
:10055000B0FA80FC00FA0CF050EA010404BF10BCB1
:10056000704749B1CCF1200421FA04F411FA0CF1DE
:1005700018BF012121430843A3EB0C01CB1D4FEA17
:1005800000614FEA102042BF002010BC704700EB12
:10059000C35010440029A4BF10BC7047401C490040
:1005A00008BF20F0010010BC704710B5141E73F195
:1005B000000408DA401C41F1000192185B411A4323
:1005C00001D120F0010010BD2DE9F04D92469B466F
:1005D00011B1B1FA81F202E0B0FA80F22032904615
:1005E000FFF78DFF04460F4640EA0A0041EA0B017F
:1005F00053465A46084313D0114653EA010019D016
:10060000C8F140025046FFF789FF05460E465046A6
:1006100059464246FFF773FF084305D0012004E026
:1006200020463946BDE8F08D0020054346EAE076D5
:100630002C4337430A986305E40AA0EB0800002224
:10064000FD0A44EA47540A3002D500200146E9E792
:10065000010510196941DDE9084500196941BDE846
:10066000F04DA2E72DE9FE4F804681EA0300C00F5E
:100670000C46009021F0004123F00045B8EB020049
:10068000A94105D24046214690461C460B460246EB
:1006900023F00040104347D0270DC7F30A00C3F3EF
:1006A0000A510290401A019040286BDAC3F31300FC
:1006B00040F4801B0098924620B10023D2EB030A3D
:1006C00063EB0B0B01985946C0F140025046FFF70F
:1006D00016FF06460D4650465946019A00F0B4F8FA
:1006E00010EB08006141002487EA115284EAE773A5
:1006F0001A4340D0009A62B3019A012A4FEA075286
:1007000015DC001B61EB02014FF0004202EA0752C8
:10071000CDE90042001C41F5801132462B46FFF71F
:1007200053FF03B000F045B840462146F9E7001BEF
:1007300061EB0201001C41F5801300185B41201899
:10074000A2F5001747EB030140EAD570B6196D41D9
:1007500011E06D084FEA360645EAC0754FEA0752C8
:10076000001B61EB0201001C41F5801149084FEAB2
:1007700030000019514132462B4603B000F01CB83E
:10078000FFF713BF0098012240000023D0EB0202C4
:1007900063EBE073009821464FEAE074B8EB000089
:1007A00061EB0401E9E783F000435BE781F000417E
:1007B00058E730BCBDE8C08F30BCBDE8C04FFFF784
:1007C000DFBFC1F30A52C1F3130140F2FF3341F41A
:1007D00080119A4202DA00200146704740F233430A
:1007E0009A42A2F2334202DC5242FFF797BEFFF771
:1007F00086BE000030B5041E71F1000404DB4FF02A
:100800000044404264EB0101141E73F1000405DB57
:100810001C464FF00043524263EB0403994208BF69
:10082000904230BD064C074D06E0E06840F0010301
:1008300094E8070098471034AC42F6D3FFF7A8FCC1
:10084000282F0008482F0008202A06DBCB17203A63
:1008500041FA02F043EAE07306E041FA02F3D040C5
:10086000C2F120029140084319467047FEE700009C
:10087000B0B58E4C002504E050B1012000F02AF9FB
:10088000013520464FF4007100F00BFAC72DF3D963
:10089000C72D84BF0120B0BD002504E050B9012060
:1008A00000F018F9013520464FF4007100F0F9F915
:1008B000EF2DF3D90020EF2D88BF0120B0BD00BF80
:1008C000B0B500F0BBF800F0A1F8FFF7D1FFCC20E5
:1008D00000F0C2F8BE2000F0BFF800F087F805462F
:1008E00000F084F804460020072C88BF4FF0FF304A
:1008F00084EA00016840C0B240EA012000B200EE84
:10090000100AB8EEC00A10EE100AFFF7B3FD9FED13
:100910000E0B53EC102BFFF799FCFFF78CFD072C07
:1009200088BF4042FFF776FD9FED091B41EC100B9D
:1009300051EC100B53EC112BFFF7FDFCFFF7ADFD55
:1009400000EE100AB0BD00BF000000000000E43F50
:10095000000000000000244010B586B01148534C40
:10096000016841F00101016001A9006800F0010087
:100970000190019803200490002003900120029030
:100980004FF400700190204600F0C0F820464FF46C
:100990000071012200F091F900F038F8FFF768FFCC
:1009A00006B010BD4C100240B0B5404C4FF4007181
:1009B0000022204600F081F90B4D0220A847204676
:1009C0004FF40071012200F078F90C20A84720466E
:1009D0004FF4007100F065F904463220A847002C5E
:1009E00018BF01242046B0BDD50A0008B0B50020CC
:1009F0000124082C84BFC0B2B0BDC5B2FFF7D4FF3C
:100A0000C001013440EA5500F3E7000010B5274C5F
:100A10004FF400710022204600F04FF940F2EE2022
:100A200000F058F820464FF40071012200F045F91B
:100A30000F20BDE8104000F04DB800BF80B5FFF7B3
:100A4000E5FFFFF715FFCC2000F006F84420BDE8D5
:100A5000804000F001B80000F8B5144C05460126AE
:100A6000082E88BFF8BD20464FF40071002200F028
:100A700024F96F08E8070AD13C2000F02BF8204643
:100A80004FF40071012200F018F9022009E0022061
:100A900000F020F820464FF40071012200F00DF91B
:100AA0003C2000F017F801363D46D9E70004004825
:100AB00070477047B0B5044600F006F90546A448F3
:100AC000611C406818BF044400F0FEF8401BA042BF
:100AD000FAD3B0BDB0B56FF006010B4C01310D1A61
:100AE0002168A8B24862204600F096FF20684FF6C1
:100AF000F97100E0456AAAB28A42FBD30248BDE818
:100B0000B04000F0A1BF00BF100000202DE9FC4F55
:100B10005D4A07274FF0000B4FF0010A4FF0030921
:100B20004FF000080026904200F1384208BF062727
:100B30004FEAB223062B38BF4FEAB22700970B6863
:100B400033FA06F408BF00F0A9B80AFA06F413EA6B
:100B5000040C00F093804D68122D16D80AFA05F3A4
:100B600013F0061F11D0D0F808E0CF6809FA08F397
:100B70002EEA030307FA08F73B438360C5F300132B
:100B80004768B340A7433B43436005F00303032B8F
:100B900009D1C5F3C00707FA06FEC76A27EA0404AD
:100BA00044EA0E07C762C4688A6809FA08F7BC43BA
:100BB00002FA08F22243FC43C26045F01002122AF6
:100BC00013D16FF003070BF01C020F2307EA56073F
:100BD000934007443D6A25EA03030D6905FA02F2D2
:100BE0001A433A624D6805F0030303FA08F20368FA
:100BF00023401A430260EA0040D5264A0BF00C0756
:100C00000F25BD401346126842F001021A601A68AF
:100C10001E4B02F001021C46019226F003021A4408
:100C2000019B1D4B9E46D358AB43009D05FA07F729
:100C30003B4342F80E3022684F6842EA0C03FD0342
:100C400058BF22EA0C032360BD03626842EA0C032A
:100C500058BF22EA0C036360FD02A26842EA0C035B
:100C600058BF22EA0C030A4AA360BF021546126865
:100C700042EA0C0358BF22EA0C032B600BF1040B71
:100C800008F1020801365AE7001800480004014044
:100C90000C0401406010024008FCFFFF1CBCBDE8D2
:100CA000E08F0069084018BF01207047426928237F
:100CB0000A4208BF1823C15070471823002A08BFF2
:100CC0002823C1507047000005480068704700BFE6
:100CD0001F48034940680A6810440860704700BF15
:100CE000D000002080B50948016841F4807101609E
:100CF000032000F065F8002000F00AF808B1012098
:100D000080BD00F027F8002080BD00BF0020024019
:100D100070B50F4E04467068B0B14FF47A71B1FBF4
:100D2000F0F046490968B1FBF0F000F0E5FD01255F
:100D30000F2C0AD848B94FF0FF3021460022002579
:100D400000F020F8346000E00125284670BD00BFA7
:100D50000400002082B00A48816841F001018160EE
:100D6000816801F0010101910199016841F0805110
:100D70000160006800F080500090009802B0704759
:100D80005810024080B5144B1B68C3F3022CBCF111
:100D9000030E8CF007034FF0FF3C38BF4FF0000EFE
:100DA000042B28BF04230CFA03F399430CFA0EF327
:100DB00001FA0EF19A431143BDE8804001F098BB5F
:100DC00005494FF6FF030A681A4060F30A220348F8
:100DD00010430860704700BF0CED00E00000FA050A
:100DE000EF49B0F5007F0A6802F4C0621BD1B2F58A
:100DF000007F20D00868012262F34A203222086076
:100E00000E48006850430E4AB0FBF2F0C0434A69F6
:100E100018B1013012F48062F9D14869400544BF2D
:100E20000320704707E0B2F5806F04D00868022203
:100E300062F34A2008600020704700BF0C000020C9
:100E400040420F00D648006800F4C060704700BF01
:100E50002DE9FC4704464078D04F000721D5606E4D
:100E60004FEAB051032908D8DFE801F00209121651
:100E7000201D002100F014FF06E0012612E004F11D
:100E80002000002100F09AFF064658B9606E03E08A
:100E9000396841F480313960F96F21F44001084329
:100EA000F86700266078C00601D4B2462BE0A06E39
:100EB0004FEA3060032809D8B246DFE800F0020CA0
:100EC0001318201D002100F0EBFE09E04FF0010A8D
:100ED0004FF0010818E004F12000002100F06EFF3F
:100EE000824604E03868B24640F480303860BAF197
:100EF000000FD04608D1F86FA16E4FF0000A20F025
:100F000040700843F867B046A078800701D4C24615
:100F100065E0F86CC0000BD4F86C4FF0010940F0AC
:100F20008050F864F86C00F080500190019801E066
:100F30004FF000099A4D286840F480702860FFF750
:100F4000C3FE06462868C00507D4FFF7BDFE801B18
:100F50000228F7D94FF0030A3AE0BAF1000F37D16F
:100F6000D7F8840010F4407028D0D4F88410884258
:100F700011D0D7F88400D7F8841041F4803120F4E0
:100F80004070C7F88410D7F8841021F48031C7F876
:100F90008410C7F88400C00710D0FFF795FE0646FE
:100FA00041F288354FF0030AD7F88400800705D452
:100FB000FFF78AFE801BA842F6D909E0D7F8840023
:100FC000D4F88410C24620F440700843C7F8840067
:100FD000B9F1000F1EBFF86C20F08050F864206853
:100FE000C10705D0F96FA26B21F003011143F96726
:100FF000810705D5F96FE26B21F00C011143F96708
:10100000410705D5F96F226C21F030011143F967D2
:10101000010705D5F96F626C21F0C0011143F96732
:10102000C10605D5F96FA26C21F440711143F9672F
:10103000810605D5F96FE26C21F440611143F9672F
:10104000810505D5F96FE26D21F440211143F9675F
:10105000410505D5F96F226E21F440111143F9675E
:10106000410605D5F96F226D21F440511143F9670E
:10107000010605D5F96F626D21F440411143F9670E
:10108000C10505D5F96FA26D21F440311143F9670F
:10109000810419D5FA6FE16E22F04062B1F1806FE0
:1010A00042EA0102FA6707D0B1F1006F0CD139684A
:1010B00041F48011396007E0201D012100F0F0FDAE
:1010C000002818BF82462068010319D5FA6F216FE6
:1010D00022F04062B1F1806F42EA0102FA6707D064
:1010E000B1F1006F0CD1396841F48011396007E02B
:1010F000201D012100F0D4FD002818BF8246206881
:10110000410319D5FA6F616F22F04062B1F1806F2F
:1011100042EA0102FA6707D0B1F1006F0CD13968D9
:1011200041F48011396007E0201D012100F0B8FD75
:10113000002818BF82462068400419D5F96FA06FB7
:1011400021F04051B0F1005F41EA0001F96707D09A
:10115000B0F1805F0CD1201D022100F0A1FD04E060
:1011600004F12000022100F029FE002818BF824669
:101170002068010405D5F96FE26F21F08041114329
:10118000F967C00306D5F86FD4F8801020F000404E
:101190000843F867504602B0BDE8F0870C100240E3
:1011A000007000402DE9F843002800F08780454B8F
:1011B00004468846186800F0070088420AD218687A
:1011C00020F0070040EA08001860186800F00700E7
:1011D000404573D120684B4EC10734D06068022867
:1011E00006D0032809D156F8081C89010DD465E002
:1011F00056F8081C890308D460E056F8081C10B1A2
:10120000490502D45AE0890758D5316899463546D0
:1012100021F0030108433060FFF756FD064641F216
:10122000883728462868616800F00C00B0EB810F11
:1012300006D0FFF749FD801BB842F2D903203EE0FB
:1012400020682E464B46810705D53168A26821F0FB
:10125000F00111433160196801F0070141450AD9D5
:10126000196821F0070141EA08011960196801F0C5
:101270000701414522D1410705D53168E26821F4D3
:10128000E06111433160000706D53068216920F420
:10129000605040EAC100306000F038F831680A4A16
:1012A000C1F30311515C01F01F01C84014490860EB
:1012B00006480068BDE8F843FFF72ABD012001B0E9
:1012C000BDE8F08300200240E02E0008040000206A
:1012D0000B480C490C4A00680968C1F30221515CB3
:1012E00001F01F01C840704705480649064A0068DA
:1012F0000968C1F3C221515C01F01F01C840704769
:101300000C00002008100240F02E0008FC498A68FA
:10131000C86812F00C0205D00C2A20D100F003009E
:1013200001281CD108681F4B000747BF0868000947
:10133000D1F89400000A002A00F00F0053F82000B2
:1013400008BF70470C2A1CBF00207047CA6802F013
:101350000302022A0BD0032A08BF114808E0042A1E
:1013600004BF0E487047082A16D10D4870470B4835
:10137000D1F80CC0CB68C9680222C1F3416102EB0D
:101380004101C3F306225043CCF302120132B0FBF9
:10139000F2F0B0FBF1F070470020D3E70024F40036
:1013A00000127A00F82E00082DE9F843002800F01A
:1013B0002C82D34E0446B06800F00C09F06800F0AF
:1013C00003082078C00628D42078C00775D0B9F16A
:1013D000080F6BD0B9F10C0F08BFB8F1030F65D03F
:1013E0006768B7F5803F07D03068B7F5A02F40F0A9
:1013F000108240F480203060306840F480303060EB
:10140000FFF762FC05463068800356D4FFF75CFCAA
:10141000411B03206429F6D9F8E1B9F1000F1BD074
:10142000B9F10C0F08BFB8F1010F15D0A1693068F0
:10143000002900F00F8140F001003060FFF744FC0C
:1014400005463068800700F11681FFF73DFC411B1F
:1014500003200229F5D9D9E13068800703D5A069B6
:10146000002800F0D281206A316809075ABFD6F8F7
:1014700094100909316801F0F001884264D900F044
:101480001FFD002840F0C181306840F00800306046
:101490003068216A20F0F000084330607068E1692C
:1014A00020F47F4040EA0120706062E030688003F1
:1014B00003D56068002800F0A881207880072BD52C
:1014C000B9F1040F1AD0B9F10C0F08BFB8F1020F2F
:1014D00014D0E1683068002900F0E58040F48070A5
:1014E0003060FFF7F1FB0546306840050DD4FFF78B
:1014F000EBFB411B03200229F6D987E13068400548
:1015000003D5E068002800F080817068216920F030
:10151000F85040EA01607060207800074FD561699B
:10152000D6F89400C9B340F00100C6F89400FFF764
:10153000CBFB0546D6F89400800740D4FFF7C4FBE8
:10154000401B0228F6D983E03168B9F1000F41F061
:1015500008013160316821F0F00141EA0001316099
:101560007168E26921F47F4141EA0221716000F073
:101570009480FFF7CBFEB168D74AC1F30311515CE9
:1015800001F01F01C840D5490860D5480068FFF741
:10159000BFFB002840F03A8116E720F00100C6F8B2
:1015A0009400FFF791FB0546D6F89400800706D516
:1015B000FFF78AFB411B03200229F5D926E1207899
:1015C000400740F1A680B06DC0000BD4B06D4FF065
:1015D000010840F08050B065B06D00F08050009080
:1015E000009801E04FF00008BE4F3868C00510D4E5
:1015F000386840F480703860FFF766FB054638684D
:10160000C00506D4FFF760FB411B03200229F6D971
:10161000FCE0A768012F07D0D6F89000052F53D122
:1016200040F00400C6F89000D6F8900040F00100A9
:10163000C6F89000FFF748FB054641F28837D6F818
:10164000900080075ED4FFF73FFB401BB842F6D9FD
:101650000320DBE020F001003060FFF735FB05469A
:10166000306880077FF5B0AEFFF72EFB411B0320EB
:101670000229F5D9CAE0306840F0080030603068CF
:10168000216A20F0F000084330607068E16920F4BE
:101690007F4040EA0120706096E600F011FC0028CF
:1016A00040F0B38065E720F480703060FFF70CFBFA
:1016B0000546306840057FF52FAFFFF705FB411B5E
:1016C00003200229F5D9A1E020F00100C6F890001E
:1016D000D6F8900020F00400C6F89000FFF7F4FA66
:1016E0000546002FA9D141F28837D6F8900080072F
:1016F00008D5FFF7E9FA411B0320B942F5D985E087
:1017000000100240B8F1000F1EBFB06D20F08050F5
:10171000B065A06A002800F0DC8002284BD1F06898
:10172000E16A00F003028A4265D1216B6FF00F027B
:1017300002EB011100F070028A425CD1616B00F48F
:10174000FE42B2EB012F56D1A16B00F400320739F3
:1017500018BF01218A424ED1E16B634A02EA01516E
:1017600000F4C002A1F500118A4244D1216C4FF06F
:101770007E4200F0C06002EA016101F17E418842D0
:1017800039D13068800100F1A480306840F0807069
:101790003060F06840F08070F060FFF795FA044622
:1017A0003068800100F19580FFF78EFA011B03205D
:1017B0000229F5D92AE0B9F10C0F26D0306820F0C3
:1017C00080703060306810F0205F03D1F06820F046
:1017D0000300F060F06847490840F060FFF774FAD2
:1017E00004463068800174D5FFF76EFA011B0320B0
:1017F0000329F6D30AE0B9F10C0F06D03068400196
:101800005CBF30685FEAC0001BD5012001B0BDE8B5
:10181000F08320F480303060306820F48020306025
:10182000FFF752FA0546002F7FF4EDAD30688003D4
:101830007FF543AEFFF748FA411B03206429F5D931
:10184000E4E7306820F080703060FFF73DFA05462D
:101850003068800106D5FFF737FA411B03200229C3
:10186000F6D9D3E704F12C07F0686FF00F058ECF9F
:1018700005EB02121D4D28400843E16B10431A4A44
:1018800040EA032002EA01514FF07E42A1F5001127
:101890000843216C02EA016101F17E4108431449C9
:1018A00001EA47310843F060306840F080703060F2
:1018B000F06840F08070F060FFF706FA0446306888
:1018C000800106D4FFF700FA011B03200229F6D994
:1018D0009CE700209AE700BFE02E00080C000020E3
:1018E00004000020007000400000E0FF8C809DF9A3
:1018F0000000FEFFFFFFEEFE411E0020B0EB116F67
:101900001CBF01207047044AF023516003490B704B
:10191000072190601160704710E000E023ED00E0C7
:1019200090F83C300222012B39D070B580F83D2070
:1019300001221C4D80F83C20026854689368AA423A
:1019400002D0194EB24203D14E6824F470043443DD
:101950000E6824F07004B2F1804F46EA0406566027
:1019600010D0124CA2420DD0114CA2420AD0114C00
:10197000A24207D00C4CA24204D00F4CA24201D08C
:10198000AA4204D1896823F08003194391600022A0
:10199000012180F83C2080F83D10BDE870401046E1
:1019A000704700BF00340140002C0140000400409B
:1019B00000080040000C004000400140B0B110B5EC
:1019C000044690F83D0028B9002084F83C002046E9
:1019D00000F00EF80220211D84F83D00206800F080
:1019E00013FB012084F83D00002010BD012070474A
:1019F00000689949884218BF704781B0054801685E
:101A000041F010010160006800F0100000900098A3
:101A100001B070475810024002210A4B80F83D1077
:101A200001688A681A40062A06D0B2F5803F03D0C2
:101A30000A6842F001020A60012180F83D1000208E
:101A4000704700BF07000100022141F2111380F826
:101A50003D1001680A6A1A4208D10A6A40F24443FA
:101A60001A4203D10A6822F001020A60012180F8BB
:101A70003D100020704710B5A0B10446406F28B952
:101A8000002084F87000204600F026F824206067CB
:101A90002068016821F001010160204600F0C8FBC8
:101AA000012801D1012010BD606A10B1204600F06C
:101AB00027FB2068416821F490414160816821F052
:101AC0002A018160016841F0010101602046BDE802
:101AD000104000F07EBB000010B586B0044601A89F
:101AE0001421FEF7A8FB20686A49884221D14348A7
:101AF000C16841F40031C160C16801F40031009156
:101B00000099016841F00101016001A9006800F03D
:101B10000100009000980720059003200490002009
:101B20000390022002900C2001904FF09040FEF7AD
:101B3000EDFF06B010BD00BFFEE700002DE9F04F3D
:101B400087B04FF0000A2D4800224FF02009CDE960
:101B500005AA016841F004010160016801F0040177
:101B600001910199016841F080010160016801F073
:101B7000800101910199016841F001010160016852
:101B800001F0010101910199016841F00201016038
:101B90002021006800F00200019001984FF0904071
:101BA000FFF78BF816484FF4007100224FF40078CD
:101BB0008346FFF782F81348CDF810A002AD124F0C
:101BC000294603904FF4005002900BF58060B8470F
:101BD000022601244FF090402946CDE904A6CDF815
:101BE00008900394B84758462946CDE904A6CDE9A4
:101BF0000284B84707B000F009B800BF4C1002409B
:101C000000040048000021100D0B000830BCBDE8A6
:101C1000C08F00001FB50F4880210F4B00244F22BA
:101C200081614FF6FF71C0E90032C0E902410394BF
:101C3000CDE90144FFF7C2FE08B1FEF73AFF0548BF
:101C400001A903940194FFF76BFE08B1FEF731FF81
:101C50001FBD00BF100000200010004010B50C4850
:101C60000C4C00220C214FF4E133C0E90822C0E9FA
:101C70000043C0E90222C0E90421C0E90622FFF7BF
:101C8000FAFE002814BFBDE8104010BDFEF711BFDA
:101C90005000002000440040FEE7704770470000FD
:101CA000F8B5D74F04460D46F868800710D0F8689D
:101CB000216800F0030201208A427BD1002979D0FB
:101CC000F8686168C0F30210013088420AD11DE053
:101CD0002068032808D002283AD0012802D13968A8
:101CE000890708D4012065E0396889035CBF396839
:101CF0005FEA4131F6D5F96862686FF00F0321F0B1
:101D0000730103EB021208431043F860386820F0B7
:101D100080603860FEF7D8FF06463868000105D5B8
:101D2000FEF7D2FF801B0228F7D93CE0A5B1386945
:101D30006049012D1BD101F1B46122690840A168FD
:101D400040EA01201C4901EA0251A1F5001119E005
:101D500039684905C6D5CEE7386957490840D4E9FE
:101D6000021240EA0120554901EA42310AE00840E6
:101D7000A168626940EA01204FF07E4101EA0261F8
:101D800001F17E4108433861386840F08060386076
:101D9000FEF79AFF05463868000106D4FEF794FF67
:101DA000401B0228F7D9032004E0A06939690843E1
:101DB0003861002001B0F0BD0000E0FFF8B5904FA1
:101DC00004460D46F868800710D0F868216800F0D6
:101DD000030201208A426BD1002969D0F86861684A
:101DE000C0F30210013088420AD11DE020680328A8
:101DF00008D0022837D0012802D13968890708D4D1
:101E0000012055E0396889035CBF39685FEA4131D8
:101E1000F6D5F96862686FF00F0321F0730103EBE8
:101E2000021208431043F860386820F08050386090
:101E3000FEF74AFF06463868800005D5FEF744FFE6
:101E4000801B0228F7D92CE0786985B119492269ED
:101E50000840A16840EA01204FF07E4101EA02619A
:101E600001F17E410CE039684905C9D5D1E7124935
:101E70000840D4E9021240EA0120104901EA423147
:101E800008437861386840F080503860FEF71CFFE6
:101E900005463868800006D4FEF716FF401B02286E
:101EA000F7D9032004E0606979690843786100206C
:101EB00001B0F0BDFF80FFF9FF80FDFF0000FEFFD5
:101EC000BCB51F4D04462868C0000FD4286840F0F8
:101ED00080502860286800F0805001900198FEF73B
:101EE000B1FF296821F08051296001E0FEF7AAFFC7
:101EF000B0F5007F06D1812C08D30120A02C88BF2B
:101F000002200EE0802C03D903200AE0002008E024
:101F1000A4F17000802CB0FA80F04FEA501008BF96
:101F2000022008490A6822F0070202440A60096890
:101F300001F00701081A18BF012002B0B0BD00BFB0
:101F400058100240002002407047FEF7C1BE70B535
:101F5000B8B027AD2421281DFEF76DF96C46842109
:101F6000201DFEF768F902260720CDE93666359078
:101F70000A203490012033901020CDE931662B9057
:101F80004FF480702A9028462796FFF70DFA002517
:101F9000032004212695CDE9245523900F2022907B
:101FA00022A8FFF7FFF820460F950096FEF750FF96
:101FB0004FF40070FEF714FF38B070BD10B50F4835
:101FC000104CD0F8801041F47001C0F880100C491A
:101FD0000A6842F001020A6000228A600B6823400E
:101FE0000B604FF48053CB600B6823F480230B60AD
:101FF0008A614FF00061016010BD00BF08ED00E094
:1020000000100240FFFFF6EAB0B50368344DB0F1AE
:10201000804F0DD0334A90420AD0334A904207D0C5
:10202000324A904204D0324A904201D0A84238D17C
:1020300005F5C0544A6823F07003041BB4FA84F415
:10204000134305F5E0524FEA541E05F5A054821AD9
:10205000041BB2FA82F2B4FA84F452094FEA541C17
:10206000CC6823F4407323434C6923F08003002A97
:1020700043EA040303608B68C3620B6883620BD17D
:10208000BEF1000F08D1A84206D005F500629042CB
:1020900002D0BCF1000F01D0096901630121416147
:1020A000B0BD05F5C05405F5E052041B821AB4FA20
:1020B00084F4B2FA82F24FEA541E05F5A054520994
:1020C000041BB4FA84F44FEA541C0A4CA042C7D053
:1020D000094CA042C4D0094CA042C1D0C4E700BF03
:1020E000002C01400004004000080040000C0040AB
:1020F00000340140004001400048014000440140DC
:10210000416ACA0708D002685368D0F828C023F48F
:10211000003343EA0C0353608A0708D5026853680A
:10212000D0F82CC023F4803343EA0C0353604A07F1
:1021300008D502685368D0F830C023F4802343EAFE
:102140000C0353600A0708D502685368D0F834C0FE
:1021500023F4004343EA0C035360CA0608D502681F
:102160009368D0F838C023F4805343EA0C0393609B
:102170008A0608D502689368D0F83CC023F400535F
:1021800043EA0C03936080B54A0615D5D0F800E009
:10219000DEF804C0036C2CF48012B3F5801F42EA11
:1021A0000302CEF8042007D1DEF80420436C22F4A9
:1021B000C0021A43CEF804200906BDE8804058BF8B
:1021C000704701684A68806C22F40022104348601E
:1021D0007047BCB504460020E067FEF775FD054674
:1021E0002068016809070BD56FF07E404FF400119D
:1021F00000222B460090204600F02CF970B9206890
:10220000006840070CD56FF07E404FF4800100223B
:102210002B460090204600F01DF908B1032005E090
:1022200020210020616784F87000A16702B0B0BD72
:10223000B0B5044601688068724DD4E904231043A8
:1022400040EA0302E0690B6802432B401A430A602C
:102250004A68E36822F440521A434A606A4AA36912
:1022600091421CBF256A2B438D6825F430652B43B2
:102270008B60664B994215D0654B994214D0654BE3
:10228000994213D0644B994212D0914212D0634BC1
:1022900099424BD1624967A2096801F0030152F8E3
:1022A000215013E0022306E0042304E0062302E0A9
:1022B000082300E00A235A4D2D6825FA03F359A597
:1022C00003F0030355F82350914220D0B0F5004F9E
:1022D0000ED10120082D00F290805B49DFE805F067
:1022E00005454E8D488D8D8D4C00FEF7F1FF41E088
:1022F0000120082D00F281805249DFE805F0054CED
:10230000557E4F7E7E7E5300FEF7E2FF48E00120BF
:10231000082D00F272804B49DFE805F0056F116F60
:102320000A6F6F6F0F00FEF7D3FF03E01025CBE7B6
:10233000FEF7ECFF014610B940E04FF4004162683F
:10234000012002EB4203994257D31303994254D818
:102350000120082D51D8DFE805F0055033503650E4
:1023600050504400FEF7B4FF2FE0FEF7BDFF01E040
:10237000FEF7CCFF410001E04FF48031606801EBD3
:102380005001B1FBF0F04FF6F071014034D0C0F3D2
:102390004200084310E0FEF7A7FF01E0FEF7B6FF9A
:1023A000014601E04FF40041606801EB5001B1FBD0
:1023B000F0F080B210281FD32168C86000201CE014
:1023C0002248002104E0FEF7A1FF6268010E00022E
:1023D00010EB52004FF0000341F10001FDF7F0FE59
:1023E00005E04FF4000000EB5200B0FBF2F0184A99
:1023F000A0F540719142DFD901200021C4E91811F4
:10240000B0BD00BFF369FFEF008000400044004012
:1024100000480040004C004000500040003801409F
:1024200088100240000000000400000002000000CC
:10243000080000000100000004000000020000008D
:10244000080000000024F4000048E801000024F423
:10245000FFFC0F002DE9F843DDF820900F460168DE
:1024600098461646044609F10105C8693840C01B64
:10247000B0FA80F04009B04223D1002DF5D0FEF72C
:1024800023FC2168B9F1000F0A681ED0A0EB0800F8
:1024900048451AD8500744BFC8695FEA0050E4D5E0
:1024A0004FF400600862086820F4D0700860886803
:1024B00020F00100886020206067A06704F17C00A4
:1024C0000EE0002001B0BDE8F08322F4D070086077
:1024D000886820F0010088602020606704F178009F
:1024E00020210160002084F870000320EAE7FEE765
:1024F00010B5074C00F00F03044AB0F1FF3F23442E
:10250000C8BF83180801187010BD00BF00E400E0C8
:1025100014ED00E003490A685206FCD5C2B28A8174
:10252000704700BF1C440040FEF7DCFBFFF70FFDC7
:10253000FFF704FBFFF792FBFFF76CFB0FA000F027
:10254000BDFC19A40FA5FEF707FA18B1284600F044
:10255000B5FC0FE0FEF7B4F910EE100AFDF78AFFA4
:10256000024620460B4600F029F84FF0904020210B
:10257000FEF79CFB6420FEF79DFAE4E7737461723A
:10258000743A0D0044533138423230204368656359
:102590006B204661696C656421506C6561736520D0
:1025A000436865636B21000054656D7065726174EA
:1025B000653A25342E3266200D0A00000FB4054B13
:1025C00010B503A9044A029800F0DEF810BC5DF8CB
:1025D00014FB0000152500080000002002E008C8D8
:1025E000121F08C1002AFAD170477047002001E08D
:1025F00001C1121F002AFBD1704700002DE9FF5FC7
:1026000082B00021DDE90430020DDDF840B0034363
:1026100018D044F61050A2F2FF324243151411981C
:1026200001281FD0A5EB0B00401C5FEA000A4FF009
:1026300000064E4FDFF83891B046504615D5CAF126
:10264000000413E0119801244AA3012801D16FEA84
:102650000B010298119AC0E90031C0E9024206B0AC
:1026600000F08EB8CBF10000DFE704460021404ABD
:10267000491842EB0450CDE9001012E0E00707D002
:1026800032463B4640464946FDF7E0FD80468946D6
:1026900032463B4610461946FDF7D8FD06460F4622
:1026A0006410002CEAD1DDE90401DDE90023BAF170
:1026B000000F06DAFDF7CAFD42464B46FDF7C6FDA0
:1026C00005E0FDF738FE42464B46FDF734FE044672
:1026D0000E460022284BFEF78DF803D84FF0FF304E
:1026E000014607E00022254B20463146FDF7BAFFA0
:1026F000FEF767F8102409E0002C0ADB0A22002309
:10270000FDF75EFD039B30321A55641E50EA01024C
:10271000F2D1641C039AC4F111031444119A012AE2
:1027200003D0012208430DD10AE0084304D0002061
:102730004FF0110B119072E7A3EB0B056D1E0DE02E
:102740005B4504DD4FF0000205F1010504E003DA0A
:102750004FF00002A5F10105002AECD00298119972
:10276000C0E90231C0E9004579E7000000001440EB
:102770000000F03F300000000000F0430000E03FA8
:1027800030BCBDE8C09F00002DE9FF4F95B09B46CF
:102790008946064600250FE2252877D100242746E2
:1027A000F84A0121059400E0044316F8013F203B5C
:1027B00001FA03F01042F7D130782A2811D06FF0D7
:1027C0002F033078A0F13002092A16D8059A44F078
:1027D000020402EB820203EB42021044761C0590D5
:1027E000EFE759F8042B0592002A03DA504244F42B
:1027F0000054059044F00204761C30782E2816D13F
:1028000016F8010F44F004042A280DD06FF02F02AF
:102810003078A0F13003092B09D807EB870302EBCE
:102820004303C718761CF3E759F8047B761C30780D
:102830006C280FD006DC4C2817D068280DD06A28E9
:1028400014D104E0742810D07A280FD10DE044F49C
:1028500000140AE044F4801401E044F44014727857
:10286000824202D104F58014761C761C30786628EA
:102870000BD013DC582877D009DC002875D0452808
:10288000F6D04628F4D047281AD19DE118E06328F5
:1028900035D0642879D0652812D195E1702873D09D
:1028A00008DC6728F1D069286FD06E280DD06F281A
:1028B00006D1B5E073282CD0752875D0782874D04F
:1028C0005A46179990476D1C75E1C4F302500228CF
:1028D00009D003280DD0D9F8001004280DD00D60C0
:1028E00009F1040967E1D9F80010EA17C1E90052BB
:1028F000F6E7D9F800100D80F2E70D70F0E719F84F
:10290000041B8DF8001000208DF80100EA4601201C
:1029100003E059F804AB4FF0FF3061074FF00001BE
:1029200002D40DE008F101018846B9420FDA804572
:10293000F8DB1AF808100029F4D108E008F10101C9
:1029400088468142FADB1AF808100029F6D105986A
:102950005B46A0EB080721463846179A00F097FA25
:10296000284400EB080507E04DE029E10DE01AF8E6
:10297000010B5A4617999047B8F10108F7D25B4608
:1029800021463846179A13E142E00A220092C4F326
:1029900002524FF0000A022A08D059F804CB032A49
:1029A0004FEAEC710AD00DE029E02AE009F10701B5
:1029B00021F00702F2E802C1914609E00FFA8CFC0F
:1029C0004FEAEC71042A03D14FFA8CFC4FEAEC7108
:1029D000002907DA0A460021DCF1000C61EB020154
:1029E0002D2202E0220504D52B228DF8042001229D
:1029F00003E0E20701D02022F7E7904659E00A21E0
:102A000002E010220DE010214FF0000A00910BE0CF
:102A100010224FF0000A44F004040827009203E05B
:102A200008224FF0000A0092C4F30252022A05D095
:102A300059F804CB0021032A08D009E009F1070165
:102A400021F00702F2E802C1914605E01FFA8CFC72
:102A5000042A01D10CF0FF0C4FF00008220728D502
:102A6000702806D0009B83F0100353EA0A0305D0B8
:102A70000EE040228DF80420012208E05CEA010209
:102A800006D030228DF804208DF8050002229046F1
:102A9000009B83F0080353EA0A030AD15CEA0102AF
:102AA00001D1620705D530228DF804204FF00108CE
:102AB0007F1E582804D034A003900EA802900DE089
:102AC00036A0F9E753466046009AFDF779FB844645
:102AD0000398825C0298401E029002705CEA01003A
:102AE000F0D1029806A9081A00F1200A600702D561
:102AF00024F4803400E00127574502DDA7EB0A00EB
:102B000000E0002000EB0A01009005984144401AC3
:102B10000590E00306D45B462146179A059800F01D
:102B2000B6F90544002706E001A85A46C05D17998A
:102B300090476D1C7F1C4745F6DBE0030CD55B46D8
:102B40002146179A059800F0A2F9054404E03020C8
:102B50005A46179990476D1C0099481E009000290D
:102B6000F5DC08E0029802995A460078491C029167
:102B7000179990476D1CBAF10001AAF1010AF1DC26
:102B800065E1000009280100303132333435363731
:102B900038396162636465660000000030313233A9
:102BA0003435363738394142434445460000000049
:102BB00000F05BF90544761C307800287FF4ECAD1A
:102BC00019B0284600F04EB9620700D4062709F173
:102BD000070222F0070CFCE80223E14603F000485C
:102BE0005FEA080C02D00FF2702C0DE05FEA045C83
:102BF00002D50FF2682C07E05FEAC47C02D00FF226
:102C0000602C01E0AFF2700C4FF0FF3823F000436E
:102C1000CDF850C065280CD006DC452809D04628E0
:102C20001DD047283DD13DE0662818D067287ED1C9
:102C300038E00021112F01DB112000E0781CCDE9E4
:102C4000000106A90EA8FFF7D9FCDDE90F010E9AD5
:102C500003910021009207F1010A04914DE04FF029
:102C600000400097CDE9011006A90EA8FFF7C6FCA9
:102C7000DDE90F0203920E9B11990022DDF80CA0F2
:102C80000093049211B9791C00EB010AB7EB0A001A
:102C900004D4C0F1FF3007F1010A0490AAEB070049
:102CA000019044E0012F00DA01270021112F01DDFE
:102CB000112000E03846CDE9000106A90EA8FFF773
:102CC0009DFCDDE90F010E9A039100210491009211
:102CD000BA4621070CD40399514500DA8A46BAF165
:102CE000010F05DD009AAAF10101515C302908D0DD
:102CF000B84202DA10F1040F06DA0121CDE9011021
:102D000015E0AAF10101E9E7002805DC0499014476
:102D10000491AAEB000102E0411C514500DD8A4606
:102D20000499401A401C01904FF000400290200787
:102D300004D40198504501DBCDF8048000208DF8C3
:102D40004F0002980DF14F07B0F1004F25D02B2016
:102D50000E9002984FF0020800280CDA40420290D0
:102D60002D200E9007E00A210298FDF7B2FB3031CA
:102D7000029007F8011DB8F10001A8F10108F2DC8A
:102D800002980028EFD1791E0E980870307800F074
:102D9000200040F0450007F8020D12A8C01B00F10A
:102DA00007081498007800B1012000EB0A0101988F
:102DB00001EBE07105984144401A401E0590E00384
:102DC00006D45B462146179A059800F060F8054442
:102DD0001498007818B15A46179990476D1CE00373
:102DE00024D55B462146179A059800F050F8054413
:102DF0001CE00498002807DBDDE90301884203DDBD
:102E00000098405C179901E0179930205A46904786
:102E1000049805F10105401C04900198401E0190A2
:102E200004D12E205A46179990476D1CBAF1000123
:102E3000AAF1010ADDDC05E017F8010B5A461799E3
:102E400090476D1CB8F10001A8F10108F4DC5B4665
:102E50002146179A0598ABE62D0000002B000000D4
:102E60002000000030BCBDE8C08F2DE9F0410446D1
:102E700000251E461746880404D405E03946202064
:102E8000B0476D1C641EF9D52846BDE8F0812DE9D8
:102E9000F041044600251E469046C80301D5302760
:102EA00000E02027880404D505E041463846B047B5
:102EB0006D1C641EF9D52846BDE8F08110B50446A6
:102EC00001E0FFF727FB14F8010B04490028F8D1B3
:102ED000BDE810400A20FFF71DBB000000000020E5
:102EE00000000000000000000102030406070809BA
:102EF0000000000001020304A0860100400D030051
:102F0000801A060000350C0040420F0080841E002D
:102F100000093D0000127A000024F40000366E0122
:102F20000048E801006CDC02482F00080000002087
:102F300010000000DC250008582F000810000020B9
:102F4000C8040000EC25000800000000100000008C
:082F50000100000000093D0032
:040000050800018965
:00000001FF
