:020000040800F2
:10000000A00900209D010008BF170008E5140008A2
:10001000BD17000807030008B72100080000000012
:10002000000000000000000000000000ED1C0008BF
:100030000903000800000000411A0008EF1C000836
:10004000B7010008B7010008B7010008B7010008B0
:10005000B7010008B7010008B7010008B7010008A0
:10006000B7010008B7010008B7010008B701000890
:10007000B7010008B7010008B7010008B701000880
:10008000B7010008B7010008B7010008B701000870
:10009000B7010008B7010008B7010008B701000860
:1000A000B7010008B7010008B7010008B701000850
:1000B000B7010008B7010008B7010008B701000840
:1000C000B7010008B7010008B7010008B701000830
:1000D000B7010008B7010008B7010008B701000820
:1000E000B7010008B7010008B7010008B701000810
:1000F000B7010008B7010008B7010008B701000800
:10010000B7010008B7010008B7010008B7010008EF
:10011000B7010008B7010008B7010008B7010008DF
:10012000B7010008B7010008B7010008B7010008CF
:10013000B7010008B7010008B7010008B7010008BF
:10014000B7010008B7010008B7010008B7010008AF
:10015000B7010008B7010008B7010008B70100089F
:10016000B7010008B7010008B7010008B70100088F
:10017000B7010008B7010008B7010008000000003F
:10018000B7010008B7010008DFF80CD000F07EF8D6
:1001900000480047F1210008A009002006488047D8
:1001A00006480047FEE7FEE7FEE7FEE7FEE7FEE75C
:1001B000FEE7FEE7FEE7FEE77D1D00088901000877
:1001C0002DE9F05F0546002092469B46884606468C
:1001D000814640241BE0284641464746224600F01F
:1001E00044F853465A46C01A914110D31146184656
:1001F000224600F02BF82D1A67EB01084F462246E5
:100200000120002100F022F817EB00094E41201ECA
:10021000A4F10104DFDC484631462A46434600F09B
:1002200000B830BCBDE8C09FD2B201E000F8012B9D
:10023000491EFBD270470022F6E710B513460A4666
:1002400004461946FFF7F0FF204610BD202A04DBC4
:10025000203A00FA02F1002070479140C2F12003D9
:1002600020FA03F3194390407047202A04DB203A18
:1002700021FA02F00021704721FA02F3D040C2F1C6
:10028000200291400843194670470000064C074D74
:1002900006E0E06840F0010394E807009847103456
:1002A000AC42F6D3FFF774FFC82B0008E82B000818
:1002B00070B58C1810F8015B15F0070301D110F828
:1002C000013B2A1106D110F8012B03E010F8016B55
:1002D00001F8016B5B1EF9D12B0705D40023521ED8
:1002E0000DD401F8013BFAE710F8013BCB1A921C40
:1002F00003E013F8015B01F8015B521EF9D5A1423E
:10030000D8D3002070BDFEE770477047B0B50446F3
:1003100000F0E0F805460548611C406818BF044439
:1003200000F0D8F8401BA042FAD3B0BD0400002072
:100330002DE9FC4F5D4A07274FF0000B4FF0010AF3
:100340004FF003094FF000080026904200F13842B8
:1003500008BF06274FEAB223062B38BF4FEAB22761
:1003600000970B6833FA06F408BF00F0A9B80AFA40
:1003700006F413EA040C00F093804D68122D16D891
:100380000AFA05F313F0061F11D0D0F808E0CF6881
:1003900009FA08F32EEA030307FA08F73B438360E0
:1003A000C5F300134768B340A7433B43436005F0E0
:1003B0000303032B09D1C5F3C00707FA06FEC76A7A
:1003C00027EA040444EA0E07C762C4688A6809FA87
:1003D00008F7BC4302FA08F22243FC43C26045F02E
:1003E0001002122A13D16FF003070BF01C020F2327
:1003F00007EA5607934007443D6A25EA03030D695F
:1004000005FA02F21A433A624D6805F0030303FA53
:1004100008F2036823401A430260EA0040D5264AE6
:100420000BF00C070F25BD401346126842F0010285
:100430001A601A681E4B02F001021C46019226F057
:1004400003021A44019B1D4B9E46D358AB43009DAB
:1004500005FA07F73B4342F80E3022684F6842EA3C
:100460000C03FD0358BF22EA0C032360BD0362683E
:1004700042EA0C0358BF22EA0C036360FD02A26843
:1004800042EA0C0358BF22EA0C030A4AA360BF02E7
:100490001546126842EA0C0358BF22EA0C032B608F
:1004A0000BF1040B08F1020801365AE70018004866
:1004B000000401400C0401406010024008FCFFFFF2
:1004C0001CBCBDE8E08F1823002A08BF2823C150B8
:1004D00070470000BC480068704700BF90F841209A
:1004E000202A03D190F84020012A01D1022118E0EE
:1004F000242280F841200268136823F0010313606E
:10050000136823F480531360136819431160116852
:1005100041F0010111600021202280F8401080F894
:1005200041200846704790F84120202A03D190F8D6
:100530004020012A01D1022117E0242280F8412025
:100540000268136823F001031360136823F47063D7
:1005500043EA01211160116841F00101116000219D
:10056000202280F8401080F84120084670470000A3
:1005700010B310B5044690F8410028B9002084F863
:100580004000204600F0E2F8242084F84100206872
:10059000016821F001010160616821F07061016171
:1005A000816821F400418160D4E90212012A05D159
:1005B00041F40041816009E00120704741F40441A9
:1005C000022A816004BF4FF40061416041680F4A14
:1005D00004F1100311434160C16821F40041C1607E
:1005E0000ECB114341EA0321C160D4E90712114344
:1005F0000160016841F00101016000202021606478
:1006000084F84110206384F8420010BD008000028D
:100610002DE9F843044690F84100202803D194F8CE
:100620004000012804D10227384601B0BDE8F0831C
:1006300001271E461546884684F84070FFF74AFF9A
:100640008146009020464FF400410122192300F01A
:10065000A1FF0028E8D1212084F84100102084F86F
:100660004200002060646685656260633548618D84
:10067000B1F5807F06D3FF21FF224FF080732185E3
:10068000009005E0618D4FF0007321850090CAB2A3
:100690002046414600F06CFF089F0025FF2636E00B
:1006A000204639464A4600F0C9FFC8BB616A206847
:1006B00011F8012B8262608D013860856162208DA6
:1006C000411E21850904608D21D100B3204680217F
:1006D00000223B46CDF8009000F05CFF00BB608D2F
:1006E000B0F5807F09D320464146FF224FF080734A
:1006F0002685009500F03CFF09E0608D41464FF0F3
:1007000000732085C2B22046009500F031FF608D55
:100710000028C5D1204639464A4600F06BFF08B193
:10072000012781E720682021074B0027C16142682B
:100730001A40426084F8411084F8407084F8427096
:1007400072E700BF0020008000E800FE10B586B010
:10075000044601A81421FFF76EFD20681349884262
:1007600021D1134C01A9206840F0020020602068CC
:1007700000F00200009000980420059003200490EF
:1007800001200390122002904FF44070019009481C
:10079000FFF7CEFDE06840F40010E060E06800F490
:1007A00000100090009806B010BD00BF005400403B
:1007B0004C100240000400481F48034940680A6882
:1007C00010440860704700BF9C05002080B50948B0
:1007D000016841F480710160032000F065F8002099
:1007E00000F00AF808B1012080BD00F027F80020D1
:1007F00080BD00BF0020024070B50F4E04467068F7
:10080000B0B14FF47A71B1FBF0F046490968B1FB21
:10081000F0F000F0F3FD01250F2C0AD848B94FF095
:10082000FF3021460022002500F020F8346000E06F
:100830000125284670BD00BF0400002082B00A4890
:10084000816841F001018160816801F0010101913D
:100850000199016841F080510160006800F080500A
:100860000090009802B070475810024080B5144BB9
:100870001B68C3F3022CBCF1030E8CF007034FF08E
:10088000FF3C38BF4FF0000E042B28BF04230CFAA6
:1008900003F399430CFA0EF301FA0EF19A43114354
:1008A000BDE8804001F088BC05494FF6FF030A68A7
:1008B0001A4060F30A22034810430860704700BFE3
:1008C0000CED00E00000FA05F649B0F5007F0A687B
:1008D00002F4C0621BD1B2F5007F20D0086801226B
:1008E00062F34A20322208600E48006850430E4AE4
:1008F000B0FBF2F0C0434A6918B1013012F48062D3
:10090000F9D14869400544BF0320704707E0B2F5BC
:10091000806F04D00868022262F34A200860002039
:10092000704700BFCC04002040420F00DD48006843
:1009300000F4C060704700BFDA48016841F480717C
:10094000016070470248016841F00401016070478E
:10095000001002402DE9FC4704464078D04F0007C4
:1009600021D5606E4FEAB051032908D8DFE801F0C5
:1009700002091216201D002101F064F806E001268C
:1009800012E004F12000002101F0EAF8064658B90F
:10099000606E03E0396841F480313960F96F21F409
:1009A00040010843F86700266078C00601D4B246CB
:1009B0002BE0A06E4FEA3060032809D8B246DFE88A
:1009C00000F0020C1318201D002101F03BF809E093
:1009D0004FF0010A4FF0010818E004F12000002157
:1009E00001F0BEF8824604E03868B24640F4803038
:1009F0003860BAF1000FD04608D1F86FA16E4FF001
:100A0000000A20F040700843F867B046A0788007DD
:100A100001D4C24665E0F86CC0000BD4F86C4FF00E
:100A2000010940F08050F864F86C00F080500190AB
:100A3000019801E04FF000099A4D286840F4807059
:100A40002860FFF747FD06462868C00507D4FFF772
:100A500041FD801B0228F7D94FF0030A3AE0BAF1B2
:100A6000000F37D1D7F8840010F4407028D0D4F8A4
:100A70008410884211D0D7F88400D7F8841041F44C
:100A8000803120F44070C7F88410D7F8841021F426
:100A90008031C7F88410C7F88400C00710D0FFF772
:100AA00019FD064641F288354FF0030AD7F8840055
:100AB000800705D4FFF70EFD801BA842F6D909E098
:100AC000D7F88400D4F88410C24620F4407008435C
:100AD000C7F88400B9F1000F1EBFF86C20F08050F9
:100AE000F8642068C10705D0F96FA26B21F00301FB
:100AF0001143F967810705D5F96FE26B21F00C010D
:100B00001143F967410705D5F96F226C21F03001D7
:100B10001143F967010705D5F96F626C21F0C00137
:100B20001143F967C10605D5F96FA26C21F4407134
:100B30001143F967810605D5F96FE26C21F4406134
:100B40001143F967810505D5F96FE26D21F4402164
:100B50001143F967410505D5F96F226E21F4401163
:100B60001143F967410605D5F96F226D21F4405113
:100B70001143F967010605D5F96F626D21F4404113
:100B80001143F967C10505D5F96FA26D21F4403114
:100B90001143F967810419D5FA6FE16E22F04062C2
:100BA000B1F1806F42EA0102FA6707D0B1F1006F3C
:100BB0000CD1396841F48011396007E0201D012112
:100BC00000F040FF002818BF82462068010319D5B5
:100BD000FA6F216F22F04062B1F1806F42EA0102A8
:100BE000FA6707D0B1F1006F0CD1396841F4801178
:100BF000396007E0201D012100F024FF002818BF04
:100C000082462068410319D5FA6F616F22F0406275
:100C1000B1F1806F42EA0102FA6707D0B1F1006FCB
:100C20000CD1396841F48011396007E0201D0121A1
:100C300000F008FF002818BF82462068400419D53C
:100C4000F96FA06F21F04051B0F1005F41EA00015F
:100C5000F96707D0B0F1805F0CD1201D022100F0B0
:100C6000F1FE04E004F12000022100F079FF0028E9
:100C700018BF82462068010405D5F96FE26F21F0A4
:100C800080411143F967C00306D5F86FD4F880108E
:100C900020F000400843F867504602B0BDE8F087F6
:100CA0000C100240007000402DE9F843002800F0CD
:100CB0008780454B04468846186800F00700884244
:100CC0000AD2186820F0070040EA08001860186887
:100CD00000F00700404573D120684B4EC10734D067
:100CE0006068022806D0032809D156F8081C89013B
:100CF0000DD465E056F8081C890308D460E056F866
:100D0000081C10B1490502D45AE0890758D531684A
:100D10009946354621F0030108433060FFF7DAFBBE
:100D2000064641F2883728462868616800F00C00C2
:100D3000B0EB810F06D0FFF7CDFB801BB842F2D994
:100D400003203EE020682E464B46810705D53168DA
:100D5000A26821F0F00111433160196801F0070128
:100D600041450AD9196821F0070141EA08011960D3
:100D7000196801F00701414522D1410705D53168C5
:100D8000E26821F4E06111433160000706D5306864
:100D9000216920F4605040EAC100306000F038F86A
:100DA00031680A4AC1F30311515C01F01F01C840C8
:100DB0001449086006480068BDE8F843FFF71CBD09
:100DC000012001B0BDE8F083002002406823000844
:100DD000040000200B480C490C4A00680968C1F364
:100DE0000221515C01F01F01C840704705480649C7
:100DF000064A00680968C1F3C221515C01F01F0175
:100E0000C8407047CC040020081002407823000836
:100E1000FC498A68C86812F00C0205D00C2A20D15F
:100E200000F0030001281CD108681F4B000747BFD2
:100E300008680009D1F89400000A002A00F00F00A9
:100E400053F8200008BF70470C2A1CBF00207047D1
:100E5000CA6802F00302022A0BD0032A08BF114815
:100E600008E0042A04BF0E487047082A16D10D482E
:100E700070470B48D1F80CC0CB68C9680222C1F397
:100E8000416102EB4101C3F306225043CCF302124D
:100E90000132B0FBF2F0B0FBF1F070470020D3E775
:100EA0000024F40000127A00982B00082DE9F84382
:100EB000002800F02C82D34E0446B06800F00C09E4
:100EC000F06800F003082078C00628D42078C00716
:100ED00075D0B9F1080F6BD0B9F10C0F08BFB8F19C
:100EE000030F65D06768B7F5803F07D03068B7F566
:100EF000A02F40F0108240F480203060306840F431
:100F000080303060FFF7E6FA05463068800356D43B
:100F1000FFF7E0FA411B03206429F6D9F8E1B9F1A3
:100F2000000F1BD0B9F10C0F08BFB8F1010F15D09D
:100F3000A1693068002900F00F8140F001003060A5
:100F4000FFF7C8FA05463068800700F11681FFF701
:100F5000C1FA411B03200229F5D9D9E13068800785
:100F600003D5A069002800F0D281206A3168090702
:100F70005ABFD6F894100909316801F0F00188428F
:100F800064D900F06FFE002840F0C181306840F065
:100F9000080030603068216A20F0F00008433060BB
:100FA0007068E16920F47F4040EA0120706062E0EF
:100FB0003068800303D56068002800F0A88120789D
:100FC00080072BD5B9F1040F1AD0B9F10C0F08BF67
:100FD000B8F1020F14D0E1683068002900F0E58014
:100FE00040F480703060FFF775FA054630684005C0
:100FF0000DD4FFF76FFA411B03200229F6D987E1D0
:101000003068400503D5E068002800F080817068F2
:10101000216920F0F85040EA0160706020780007F4
:101020004FD56169D6F89400C9B340F00100C6F805
:101030009400FFF74FFA0546D6F89400800740D495
:10104000FFF748FA401B0228F6D983E03168B9F16E
:10105000000F41F008013160316821F0F00141EAF0
:10106000000131607168E26921F47F4141EA0221A7
:10107000716000F09480FFF7CBFEB168D74AC1F3EE
:101080000311515C01F01F01C840D5490860D548E3
:101090000068FFF7B1FB002840F03A8116E720F026
:1010A0000100C6F89400FFF715FA0546D6F894003B
:1010B000800706D5FFF70EFA411B03200229F5D958
:1010C00026E12078400740F1A680B06DC0000BD427
:1010D000B06D4FF0010840F08050B065B06D00F089
:1010E00080500090009801E04FF00008BE4F386833
:1010F000C00510D4386840F480703860FFF7EAF912
:1011000005463868C00506D4FFF7E4F9411B032003
:101110000229F6D9FCE0A768012F07D0D6F8900085
:10112000052F53D140F00400C6F89000D6F8900087
:1011300040F00100C6F89000FFF7CCF9054641F2F7
:101140008837D6F8900080075ED4FFF7C3F9401BBC
:10115000B842F6D90320DBE020F001003060FFF751
:10116000B9F90546306880077FF5B0AEFFF7B2F9F0
:10117000411B03200229F5D9CAE0306840F008007D
:1011800030603068216A20F0F000084330607068F9
:10119000E16920F47F4040EA0120706096E600F0AB
:1011A00061FD002840F0B38065E720F48070306076
:1011B000FFF790F90546306840057FF52FAFFFF740
:1011C00089F9411B03200229F5D9A1E020F0010093
:1011D000C6F89000D6F8900020F00400C6F8900001
:1011E000FFF778F90546002FA9D141F28837D6F8E4
:1011F0009000800708D5FFF76DF9411B0320B94225
:10120000F5D985E000100240B8F1000F1EBFB06DA7
:1012100020F08050B065A06A002800F0DC80022831
:101220004BD1F068E16A00F003028A4265D1216B7C
:101230006FF00F0202EB011100F070028A425CD1E4
:10124000616B00F4FE42B2EB012F56D1A16B00F4AA
:101250000032073918BF01218A424ED1E16B634A3F
:1012600002EA015100F4C002A1F500118A4244D102
:10127000216C4FF07E4200F0C06002EA016101F192
:101280007E41884239D13068800100F1A480306805
:1012900040F080703060F06840F08070F060FFF7E0
:1012A00019F904463068800100F19580FFF712F9C2
:1012B000011B03200229F5D92AE0B9F10C0F26D031
:1012C000306820F080703060306810F0205F03D10B
:1012D000F06820F00300F060F06847490840F060D3
:1012E000FFF7F8F804463068800174D5FFF7F2F88C
:1012F000011B03200329F6D30AE0B9F10C0F06D035
:10130000306840015CBF30685FEAC0001BD5012037
:1013100001B0BDE8F08320F480303060306820F404
:1013200080203060FFF7D6F80546002F7FF4EDAD42
:10133000306880037FF543AEFFF7CCF8411B0320F4
:101340006429F5D9E4E7306820F080703060FFF759
:10135000C1F805463068800106D5FFF7BBF8411B90
:1013600003200229F6D9D3E704F12C07F0686FF0C7
:101370000F058ECF05EB02121D4D28400843E16B8F
:1013800010431A4A40EA032002EA01514FF07E421C
:10139000A1F500110843216C02EA016101F17E41CF
:1013A0000843144901EA47310843F060306840F0CF
:1013B00080703060F06840F08070F060FFF78AF86D
:1013C00004463068800106D4FFF784F8011B03202F
:1013D0000229F6D99CE700209AE700BF682300089D
:1013E000CC04002004000020007000400000E0FF5A
:1013F0008C809DF90000FEFFFFFFEEFE411E0020E5
:10140000B0EB116F1CBF01207047044AF0235160FC
:1014100003490B70072190601160704710E000E0F5
:1014200023ED00E010B5A0B10446406F28B90020BC
:1014300084F87000204600F025F8242060672068BA
:10144000016821F001010160204600F055FD0128EE
:1014500001D1012010BD606A10B1204600F0B4FC3B
:101460002068416821F490414160816821F02A019F
:101470008160016841F0010101602046BDE8104033
:1014800000F00BBD10B586B0044601A81421FEF78C
:10149000D2FE2068C849884221D1A048C16841F4E1
:1014A0000031C160C16801F4003100910099016808
:1014B00041F00101016001A9006800F00100009005
:1014C000009807200590032004900020039002203C
:1014D00002900C2001904FF09040FEF729FF06B0DB
:1014E00010BD00BFFEE700688169890744BF002185
:1014F00081628169C90702BF816941F0010181618F
:1015000070470000F8B5044600680E468169C906B8
:1015100001D4002027E01546771C08E03FB1FEF714
:10152000D9FF20219EB1401BB04210D820688169AC
:101530008906F3D51021C1612021C1612046FFF742
:10154000D2FF2068094A4168114041600421606C63
:1015500008436064202084F84100002084F84000A3
:1015600084F84200012001B0F0BD00BF00E800FE99
:101570006FF39F210068194341EA0241009A4368D2
:10158000114323EA5252024B1A4011434160704703
:10159000009C00FC2DE9F843DDF820801D4616462E
:1015A0000F4681465C1CD9F8000080693840C01B9A
:1015B000B0FA80F04009B04218D1002CF3D0FEF709
:1015C00089FF1DB1A0EB0800A842ECD9D9F844006E
:1015D00040F02000C9F84400202089F84100002094
:1015E00089F8400089F84200012000E0002001B0A5
:1015F000BDE8F08370B515460E4604462068806944
:10160000800644BF002070BD204631462A46FFF7C1
:1016100079FF88B9FEF75EFF16B1401BB042EDD9E5
:10162000606C40F020006064202084F841000020BD
:1016300084F8400084F84200012070BDF8B51546DA
:101640000E4604464F1C2068806980071BD4204644
:1016500031462A46FFF756FF98B9002FF3D0FEF720
:1016600039FF16B1401BB042EDD9606C40F020004C
:101670006064202084F84100002084F8400084F851
:101680004200012000E0002001B0F0BD70B586B03E
:101690000025224800222026CDE90455016841F0AA
:1016A00004010160016801F00401009100990168E2
:1016B00041F080010160016801F080010091009912
:1016C000016841F001010160016801F00101009130
:1016D0000099016841F0020101602021006800F0DA
:1016E0000200009000984FF09040FEF7ECFE0C488E
:1016F000039501AC214602904FF400500190094837
:10170000FEF716FE0120CDE903552146CDE9016023
:101710004FF09040FEF70CFE06B070BD4C1002403A
:10172000000021100008004810B5C44C124A134BA9
:1017300001200021C4E90032C4E9021004F11000C4
:101740001421FEF778FD2046FEF712FF08B1FEF7E0
:10175000DCFDBA480021FEF7C1FE08B1FEF7D5FD59
:10176000B6480021FEF7DFFE002814BFBDE8104098
:1017700010BDFEF7CABD00BFEB9B900000540040B7
:1017800010B50C480C4C00220C214FF4E133C0E999
:101790000822C0E90043C0E90222C0E90421C0E9EF
:1017A0000622FFF73FFE002814BFBDE8104010BD21
:1017B000FEF7ABBD1C05002000440040FEE770476B
:1017C00070B5484D0024E0B2072888BF70BDA4F171
:1017D0005000C0B2A84700200026A8471020A84704
:1017E00003E0002000F018F9013670B20028F8DAA2
:1017F0000134E8E72DE9F047089F984615468A46E8
:10180000814600245FFA8AF1414528BFBDE8F08790
:10181000484600F055F84E4605E0A0B2385C00F0AE
:10182000FBF801360134F0B2A842F6D30AF1010AFE
:10183000E8E7000010B54FF4FA70FEF767FD294C99
:10184000AE20A0470020A0471020A0474020A0477E
:101850008120A047FF20A047A120A047C820A04783
:10186000A620A047A820A0473F20A047D320A047FC
:101870000020A047D520A0478020A047D920A0471E
:10188000F120A047DA20A0471220A047DB20A04784
:101890004020A0472020A0470220A0478D20A0473D
:1018A0001420A047A420A047A620A047AF20A0470F
:1018B000FFF786FF00200021BDE81040AFF3008055
:1018C000B0B50446A1F15000064DC0B2A8472009AA
:1018D0001030A84704F00E0029460130BDE8B040A2
:1018E000084700BFF5190008F8B516460D4604462E
:1018F000FFF7E6FF0D48002700EB861603E0F05DDA
:1019000000F08AF80137102FF9D1681CC1B22046C7
:10191000FFF7D6FF06F120040025102D08BFF8BD03
:10192000605D00F079F80135F7E700BF0C04002096
:101930002DE9F843044640B21D46164601EBD41784
:101940000028D8BF00242046F9B2FFF7B9FFA6F15E
:101950002000102DC0B220D1DFF860804FEA0019BE
:10196000002608EB001503E0A85D00F055F80136ED
:10197000082EF9D1781CC1B22046FFF7A1FF49F02B
:101980000800002508EB0004082D08BFBDE8F88317
:10199000605D00F041F80135F6E7074900EB4000D3
:1019A000002501EB400403E0605D00F035F80135EF
:1019B000062DF9D1BDE8F88380230008A82500088A
:1019C0002DE9F041984615460E46074600240BE0E7
:1019D000F8B2F1B24346FFF7ABFF08370134F8B273
:1019E000782884BF02360027E0B22A5C002AEFD1B3
:1019F000BDE8F081E0B58DF8070000200DF106028A
:101A0000782102238DF806004FF6FF7000900B48F6
:101A1000FEF7FEFD8CBD00BFE0B58DF8070040204D
:101A20000DF10602782102238DF806004FF6FF70B3
:101A300000900248FEF7ECFD8CBD00BFD0040020F2
:101A400070470000F8B5DE4F04460D46F868800781
:101A500010D0F868216800F0030201208A427BD18F
:101A6000002979D0F8686168C0F30210013088421B
:101A70000AD11DE02068032808D002283AD00128A6
:101A800002D13968890708D4012065E039688903E3
:101A90005CBF39685FEA4131F6D5F96862686FF07A
:101AA0000F0321F0730103EB021208431043F860A7
:101AB000386820F080603860FEF70CFD0646386814
:101AC000000105D5FEF706FD801B0228F7D93CE092
:101AD000A5B138696049012D1BD101F1B4612269BA
:101AE0000840A16840EA01201C4901EA0251A1F521
:101AF000001119E039684905C6D5CEE7386957495C
:101B00000840D4E9021240EA0120554901EA423175
:101B10000AE00840A168626940EA01204FF07E4176
:101B200001EA026101F17E4108433861386840F002
:101B300080603860FEF7CEFC05463868000106D4A8
:101B4000FEF7C8FC401B0228F7D9032004E0A06977
:101B5000396908433861002001B0F0BD0000E0FFA2
:101B6000F8B5974F04460D46F868800710D0F8681E
:101B7000216800F0030201208A426BD1002969D05C
:101B8000F8686168C0F30210013088420AD11DE094
:101B90002068032808D0022837D0012802D13968EC
:101BA000890708D4012055E0396889035CBF39688A
:101BB0005FEA4131F6D5F96862686FF00F0321F0F2
:101BC000730103EB021208431043F860386820F0F9
:101BD00080503860FEF77EFC06463868800005D5E8
:101BE000FEF778FC801B0228F7D92CE0786985B1D4
:101BF000194922690840A16840EA01204FF07E415E
:101C000001EA026101F17E410CE039684905C9D55C
:101C1000D1E712490840D4E9021240EA01201049F4
:101C200001EA423108437861386840F080503860FA
:101C3000FEF750FC05463868800006D4FEF74AFCE3
:101C4000401B0228F7D9032004E060697969084342
:101C50007861002001B0F0BDFF80FFF9FF80FDFF3B
:101C60000000FEFFBCB51F4D04462868C0000FD41D
:101C7000286840F080502860286800F0805001906B
:101C80000198FEF753FE296821F08051296001E098
:101C9000FEF74CFEB0F5007F06D1812C08D3012061
:101CA000A02C88BF02200EE0802C03D903200AE07C
:101CB000002008E0A4F17000802CB0FA80F04FEA18
:101CC000501008BF022008490A6822F007020244A7
:101CD0000A60096801F00701081A18BF012002B064
:101CE000B0BD00BF58100240002002407047FEF710
:101CF00063BD000070B5B8B027AD2421281DFEF7E4
:101D00009AFA6C468421201DFEF795FAFEF714FE20
:101D1000194801220026016821F018010160022003
:101D20000721CDE936003591142134913392CDE964
:101D3000310260202F902846CDE92D262992279147
:101D4000FFF7B4F803202696CDE9246602212390FC
:101D50000F20229022A8FEF7A7FF422014960F968C
:101D600000902046FEF7F6FD4FF40070FEF7ACFD44
:101D7000FEF7E8FD38B070BD9010024010B50F4876
:101D8000104CD0F8801041F47001C0F880100C495C
:101D90000A6842F001020A6000228A600B68234050
:101DA0000B604FF48053CB600B6823F480230B60EF
:101DB0008A614FF00061016010BD00BF08ED00E0D6
:101DC00000100240FFFFF6EA416ACA0708D0026825
:101DD0005368D0F828C023F4003343EA0C0353605F
:101DE0008A0708D502685368D0F82CC023F48033E2
:101DF00043EA0C0353604A0708D502685368D0F8D9
:101E000030C023F4802343EA0C0353600A0708D54B
:101E100002685368D0F834C023F4004343EA0C034B
:101E20005360CA0608D502689368D0F838C023F416
:101E3000805343EA0C0393608A0608D502689368CE
:101E4000D0F83CC023F4005343EA0C03936080B500
:101E50004A0615D5D0F800E0DEF804C0036C2CF477
:101E60008012B3F5801F42EA0302CEF8042007D1A6
:101E7000DEF80420436C22F4C0021A43CEF804209A
:101E80000906BDE8804058BF704701684A68806C09
:101E900022F40022104348607047BCB5044600207D
:101EA000E067FEF717FB05462068016809070BD5B8
:101EB0006FF07E404FF4001100222B460090204628
:101EC00000F02CF970B92068006840070CD56FF05D
:101ED0007E404FF4800100222B460090204600F007
:101EE0001DF908B1032005E020210020616784F876
:101EF0007000A16702B0B0BDB0B50446016880684B
:101F0000724DD4E90423104340EA0302E0690B68F0
:101F100002432B401A430A604A68E36822F44052A5
:101F20001A434A606A4AA36991421CBF256A2B433F
:101F30008D6825F430652B438B60664B994215D034
:101F4000654B994214D0654B994213D0644B99422A
:101F500012D0914212D0634B99424BD1624967A291
:101F6000096801F0030152F8215013E0022306E052
:101F7000042304E0062302E0082300E00A235A4D6C
:101F80002D6825FA03F359A503F0030355F82350F0
:101F9000914220D0B0F5004F0ED10120082D00F263
:101FA00090805B49DFE805F005454E8D488D8D8DAD
:101FB0004C00FEF70FFF41E00120082D00F2818068
:101FC0005249DFE805F0054C557E4F7E7E7E53007A
:101FD000FEF700FF48E00120082D00F272804B4917
:101FE000DFE805F0056F116F0A6F6F6F0F00FEF7E6
:101FF000F1FE03E01025CBE7FEF70AFF014610B91A
:1020000040E04FF400416268012002EB4203994234
:1020100057D31303994254D80120082D51D8DFE833
:1020200005F005503350365050504400FEF7D2FEB4
:102030002FE0FEF7DBFE01E0FEF7EAFE410001E0E3
:102040004FF48031606801EB5001B1FBF0F04FF6C6
:10205000F071014034D0C0F34200084310E0FEF7B5
:10206000C5FE01E0FEF7D4FE014601E04FF4004159
:10207000606801EB5001B1FBF0F080B210281FD373
:102080002168C86000201CE02248002104E0FEF71F
:10209000BFFE6268010E000210EB52004FF0000319
:1020A00041F10001FEF78CF805E04FF4000000EB71
:1020B0005200B0FBF2F0184AA0F540719142DFD90E
:1020C00001200021C4E91811B0BD00BFF369FFEF82
:1020D000008000400044004000480040004C0040A8
:1020E000005000400038014088100240000000000D
:1020F00004000000020000000800000001000000D1
:102100000400000002000000080000000024F400A9
:102110000048E801000024F4FFFC0F002DE9F8431B
:10212000DDF820900F46016898461646044609F1EE
:102130000105C8693840C01BB0FA80F04009B042C0
:1021400023D1002DF5D0FEF7C5F92168B9F1000FB4
:102150000A681ED0A0EB080048451AD8500744BFB3
:10216000C8695FEA0050E4D54FF40060086208686F
:1021700020F4D0700860886820F00100886020207A
:102180006067A06704F17C000EE0002001B0BDE8AC
:10219000F08322F4D0700860886820F00100886025
:1021A0002020606704F1780020210160002084F87D
:1021B00070000320EAE7FEE710B5074C00F00F03BC
:1021C000044AB0F1FF3F2344C8BF831808011870C8
:1021D00010BD00BF00E400E014ED00E003490A6810
:1021E0005206FCD5C2B28A81704700BF1C44004031
:1021F00082B0FEF7EBFAFFF77DFDFFF747FAFFF736
:1022000093FAFFF7BDFA38A000F09CF8FFF712FB35
:102210003A4E3F4F424C0FF2E8083EA5FFF7D0FA86
:102220000020002141221023B04700200221422239
:102230001023B0470020042143221023B047002080
:10224000062144221023B0470F20002141220C23F5
:10225000B0470F20012142220C23B0470F2002215A
:1022600043220C23B0470F20032144220C23B04704
:102270000F20042145220C23B0470F2005214622C0
:102280000C23B0470F20062147220C23B0470F2014
:10229000072148220C23B0471E20002142460C2370
:1022A000FFF78EFB232002210022B84741200221A4
:1022B0000122B8475F2002210222B84724200621CC
:1022C0002A461023FFF77CFB41F28830FEF71EF808
:1022D00000200021802208230094FFF78BFA41F2AE
:1022E0008830FEF713F899E74F4C454420302E39DB
:1022F000362720544553542E2E2E0D003119000838
:1023000073746D3332206E75636C656F000000006E
:10231000E9180008496F5420426F617264000000A0
:102320000C00002002E008C8121F08C1002AFAD1E0
:1023300070477047002001E001C1121F002AFBD145
:102340007047000010B5044601E0FFF747FF14F89E
:10235000010B04490028F8D1BDE810400A20FFF71E
:102360003DBF000000000020000000000000000051
:10237000010203040607080900000000010203042B
:102380000000000000000000002F00000000070017
:10239000070000147F147F1400242A7F2A12006291
:1023A000640813230036495522500000050300003D
:1023B00000001C224100000041221C000014083EC5
:1023C00008140008083E0808000000A0600000088B
:1023D00008080808000060600000002010080402DF
:1023E000003E5149453E0000427F4000004261519D
:1023F0004946002141454B31001814127F10002737
:1024000045454539003C4A494930000171090503F9
:1024100000364949493600064949291E000036362A
:10242000000000005636000000081422410000148D
:10243000141414140000412214080002015109066A
:1024400000324959513E007C1211127C007F4949EB
:102450004936003E41414122007F4141221C007F1C
:1024600049494941007F09090901003E4149497A2A
:10247000007F0808087F0000417F410000204041A4
:102480003F01007F08142241007F40404040007F10
:10249000020C027F007F0408107F003E4141413E54
:1024A000007F09090906003E4151215E007F09199C
:1024B00029460046494949310001017F0101003F99
:1024C0004040403F001F2040201F003F4038403F19
:1024D000006314081463000708700807006151497D
:1024E000454300007F41410000552A552A55000010
:1024F00041417F000004020102040040404040408E
:10250000000001020400002054545478007F484425
:10251000443800384444442000384444487F00385C
:102520005454541800087E0901020018A4A4A47C85
:10253000007F080404780000447D4000004080844F
:102540007D00007F102844000000417F4000007C97
:1025500004180478007C08040478003844444438A3
:1025600000FC242424180018242418FC007C0804EF
:10257000040800485454542000043F444020003CC8
:102580004040207C001C2040201C003C4030403C4F
:10259000004428102844001CA0A0A07C00446454DF
:1025A0004C44141414141414000000000000000023
:1025B0000000000000000000000000F80000000023
:1025C000000000333000000000100C06100C060064
:1025D000000000000000000040C07840C0784000CB
:1025E000043F04043F040400007088FC083000002D
:1025F000001820FF211E0000F008F000E018000085
:1026000000211C031E211E0000F00888700000003D
:102610001E2123241927211010160E00000000008F
:102620000000000000000000000000E018040200AC
:10263000000000071820400000020418E00000001D
:102640000040201807000000404080F0804040001B
:102650000202010F01020200000000F00000000071
:102660000101011F01010100000000000000000045
:1026700080B07000000000000000000000000000BA
:102680000001010101010101000000000000000043
:1026900000303000000000000000000080601804DE
:1026A000006018060100000000E010080810E000BB
:1026B000000F102020100F00001010F80000000084
:1026C0000020203F202000000070080808887000CB
:1026D000003028242221300000300888884830004B
:1026E0000018202020110E000000C02010F800006B
:1026F00000070424243F240000F808888808080004
:102700000019212020110E0000E010888818000018
:10271000000F112020110E0000380808C8380800EA
:102720000000003F0000000000708808088870006A
:10273000001C222121221C0000E010080810E000EB
:102740000000312222110F00000000C0C000000074
:102750000000003030000000000000800000000099
:102760000000806000000000000080402010080091
:10277000000102040810200040404040404040005A
:102780000404040404040400000810204080000035
:102790000020100804020100007048080808F0003A
:1027A0000000003036010000C030C828E810E0000A
:1027B0000718272423140B000000C038E000000095
:1027C000203C23020227382008F8888888700000FF
:1027D000203F202020110E00C030080808083800D3
:1027E000071820202010080008F808080810E0004A
:1027F000203F202020100F0008F88888E8081000EB
:10280000203F20202320180008F88888E8081000BE
:10281000203F200003000000C030080808380000F6
:1028200007182020221E020008F808000008F808F7
:10283000203F210101213F20000808F8080800007E
:102840000020203F2020000000000808F8080800B1
:10285000C08080807F00000008F888C02818080029
:10286000203F20012638200008F808000000000062
:10287000203F20202020300008F8F800F8F8080059
:10288000203F003F003F200008F830C00008F80853
:10289000203F200007183F00E01008080810E00063
:1028A0000F10202020100F0008F808080808F0007A
:1028B000203F210101010000E01008080810E0009D
:1028C0000F18242438504F0008F888888888700032
:1028D000203F2000030C30200070880808083800D2
:1028E0000038202121221C00180808F808081800C8
:1028F0000000203F2000000008F808000008F80849
:10290000001F202020201F000878880000C83808F9
:10291000000007380E010000F80800F80008F80071
:10292000033C0700073C030008186880806818080B
:1029300020302C03032C30200838C800C838080089
:102940000000203F2000000010080808C8380800D8
:102950002038262120201800000000FE020202007C
:102960000000007F40404000000C30C0000000002C
:10297000000000010638C00000020202FE00000054
:10298000004040407F0000000000040202020400FA
:102990000000000000000000000000000000000037
:1029A000808080808080808000020204000000001F
:1029B0000000000000000000000080808080000017
:1029C0000019242222223F2008F800808000000005
:1029D000003F112020110E000000008080800000C8
:1029E000000E112020201100000000808088F800D7
:1029F000000E112020103F20000080808080000009
:102A0000001F222222221300008080F0888888186C
:102A10000020203F20200000000080808080800077
:102A2000006B94949493600008F80080808000000C
:102A3000203F210000203F200080989800000000E7
:102A40000020203F20200000000000809898000017
:102A500000C08080807F000008F800008080800037
:102A6000203F24022D302000000808F8000000005C
:102A70000020203F20200000808080808080800017
:102A8000203F20003F20003F8080008080800000A9
:102A9000203F210000203F20000080808080000037
:102AA000001F202020201F00808000808000000068
:102AB00080FFA12020110E00000000808080800097
:102AC000000E112020A0FF80808080008080800088
:102AD00020203F21200001000000808080808000B5
:102AE0000033242424241900008080E0808000002A
:102AF0000000001F20200000808000000080800077
:102B0000001F202020103F208080800000808080D7
:102B100000010E3008060100808000800080808067
:102B20000F300C030C300F0000808000808080008C
:102B30000020312E0E3120008080800000808080B7
:102B400080818E7018060100008080808080800067
:102B50000021302C2221300000000000807C020285
:102B600000000000003F404000000000FF000000A7
:102B700000000000FF0000000002027C8000000056
:102B80000040403F00000000000601010202040472
:102B90000000000000000000A0860100400D0300BE
:102BA000801A060000350C0040420F0080841E0091
:102BB00000093D0000127A000024F40000366E0186
:102BC0000048E801006CDC02E82B0008000000204F
:102BD000D0040000B0020008302D0008D00400200E
:102BE000D004000034230008413210420116060AC6
:102BF000FE0AC612E012F062F84EFE7DBBC7EF017E
:102C0000053EC7BB7DFE300D080CFEFE0C082060A3
:102C1000FEFE60208F7848FE82BABA0309135EAACE
:102C20000101017E6CFEFF0301CBFFFF0F39BBECFE
:102C3000C0C0C0271918F92701392975990B6CFFF5
:102C4000FF0C01491A0C22E1E1E12701396C0F1F49
:102C50001801FB1F0F0F092E270136168C42221276
:102C60000C26FC020202FC3304FE16205844FE40EF
:102C70002A10015912491E4912A92A0123300A2497
:102C8000A42E24E4242EA424C00AF84A4C48F84870
:102C90004C4AF82A01013907490D5915991F99180D
:102CA000091412712BC020A1AB20C00A11300A12E6
:102CB0000A07027F02070A121E0B0A0A0A7F040291
:102CC000560B980A1F2040404050205F800A313246
:102CD000E032FF3B20400FE1240804034C40807F9A
:102CE000DA02120E17ECAAA9A8AAEC0712DF242414
:102CF000A2A2381008806F020222CA0F071227C949
:102D0000090828CE151060028C080A10FC04E4247F
:102D100024E2121312811704047E81601F0009123D
:102D2000FF4020030C12214013093D000000000069
:040000050800018965
:00000001FF
